:020000040800F2
:10000000580C00203D01000863010008AF0A0008F9
:1000100000000000000000000000000000000000E0
:100020000000000000000000000000006701000860
:10003000000000000000000069010008A90C000891
:100040006D0100086D0100086D0100086D010008D8
:100050006D0100086D0100086D0100086D010008C8
:10006000000000006D0100086D0100086D0100082E
:100070006D0100086D0100086D0100086D010008A8
:100080006D01000800000000000000006D01000884
:10009000000000006D0100086D0100086D010008FE
:1000A000000000006D010008000000006D01000864
:1000B00000F002F800F032F80CA030C8083824181C
:1000C0002D18A246671EAB4654465D46AC4201D190
:1000D00000F024F87E460F3E0FCCB6460126334290
:1000E00000D0FB1AA246AB46334318470C41000030
:1000F0002C4100000023002400250026103A01D3E3
:1001000078C1FBD8520700D330C100D50B607047CF
:100110001FB500F055F91FBD10B510BD00F0DCFA99
:100120001146FFF7F5FF02F083FD00F0F4FA03B487
:10013000FFF7F2FF03BC00F029FB00000F4880F33B
:1001400008880F480168090E0E4A914205D10E48F1
:100150000E4901600E480F4901600F4880470F4863
:100160000047FEE7FEE7FEE7FEE7FEE7FEE70000EA
:100170000B480C490C4A0D4B70470000580C0020EE
:10018000040000001F0000001810024001000000E1
:100190000000014000000000AD0C0008B1000008A4
:1001A00058060020580C002058080020580800204D
:1001B0000378C2781946437812061B0219438378E4
:1001C000C0781B04194311430902090A00060843B9
:1001D0007047002203098B4273D3030A8B4258D322
:1001E000030B8B423CD3030C8B4221D312E003461A
:1001F0000B437FD4002243088B4274D303098B4204
:100200005FD3030A8B4244D3030B8B4228D3030CE6
:100210008B420DD3FF22090212BA030C8B4202D388
:100220001212090265D0030B8B4219D300E0090AB0
:10023000C30B8B4201D3CB03C01A5241830B8B42B9
:1002400001D38B03C01A5241430B8B4201D34B03A2
:10025000C01A5241030B8B4201D30B03C01A524107
:10026000C30A8B4201D3CB02C01A5241830A8B428C
:1002700001D38B02C01A5241430A8B4201D34B0275
:10028000C01A5241030A8B4201D30B02C01A5241D9
:10029000CDD2C3098B4201D3CB01C01A524183098D
:1002A0008B4201D38B01C01A524143098B4201D3C7
:1002B0004B01C01A524103098B4201D30B01C01AF2
:1002C0005241C3088B4201D3CB00C01A524183086C
:1002D0008B4201D38B00C01A524143088B4201D399
:1002E0004B00C01A5241411A00D2014652411046F9
:1002F00070475DE0CA0F00D04942031000D340426E
:10030000534000229C4603098B422DD3030A8B42A3
:1003100012D3FC22890112BA030A8B420CD3890141
:1003200092118B4208D3890192118B4204D3890127
:100330003AD0921100E08909C3098B4201D3CB0165
:10034000C01A524183098B4201D38B01C01A52411A
:1003500043098B4201D34B01C01A524103098B421E
:1003600001D30B01C01A5241C3088B4201D3CB0009
:10037000C01A524183088B4201D38B00C01A5241EC
:10038000D9D243088B4201D34B00C01A5241411AC3
:1003900000D20146634652415B10104601D34042F1
:1003A000002B00D54942704763465B1000D34042A2
:1003B00001B50020C046C04602BD70477047704777
:1003C00070B5064C7C44064D7D4403E0206800195E
:1003D0008047241DAC42F9D170BD0000503E0000A2
:1003E000503E0000F0B5FF252D04C609C209FF27C5
:1003F00004462E400137CB093E4348402A402B405B
:100400000746002A6BD0002B69D0AA4267D0AB42C6
:1004100065D0002800DA32460125ED0529432C433A
:1004200009022002090AD21A4B0C7F24E31A434C1A
:10043000000A7C44E35C7D242404121914145B003C
:10044000A218884201D3521C00E0400049420C46E9
:100450005C4324115C43DB016415E318040A5C432C
:10046000C502200D0C4644436419250A5D4323034D
:10047000EC0C0D46654300030019EB184C42A342F7
:1004800001D35B18401CD4052018002B07D05B005B
:10049000C91804D3401C002901D1400840003F2165
:1004A00089048A4209D3002A08DC1106090F04D006
:1004B000032149074018C00FC007F0BD01224100C9
:1004C000120689187F2252069142F6D20521490769
:1004D000C84201D59010F0BDFF20C005F0BD002F2F
:1004E00000DA32461648AA4207D2AB4205D21902B8
:1004F000090E17D0F80FC007F0BDFF2563002D06C9
:10050000AB42F9D84900A942F6D8AB4201D1A94281
:10051000F2D0A94201D1002101E061004908D005D3
:100520000843F0BD1102090EFBD0FF200243D005A5
:10053000F0BD0A460146104654E70000823D000027
:100540000000C07F10B501469E240002CA15A30713
:10055000002A02D01843002A04DBA21A002A0CDD6C
:10056000D04010BD1206120E01D140004008A21A60
:1005700003D4D04040420028F3DDFF224800120699
:10058000904201D9002010BDC817C043584010BD8B
:100590001F22030C02D10F2200041CD0030E01D134
:1005A0000002083A030F01D10001121F830F01D18D
:1005B0008000921E002801DB4000521ED205511817
:1005C000021251181922904004D3491C002801D16D
:1005D0004908490008467047C10FC90700D040428A
:1005E000012292071143D3E701218907D0E70000D8
:1005F00010B5FF22C30D134009D05A4007D09142D5
:1006000005DA5C42A14202DDC905081810BDC40F1D
:10061000E407002B06D0002A06D0002902DBFF20C9
:10062000C0050443204610BD4102FCD0004810BD67
:100630000000C07F10B5FF231B0644009C421DD85C
:100640004C009C421AD80346124A0B4307D4401A66
:1006500002D3EFF3008010BDEFF3008010BD081A45
:1006600006D2EFF3008001219043C907084302E05E
:10067000EFF30080904380F3008810BD0D231B042E
:100680001A4204D01146002000F006F810BD00F018
:100690001BF810BD00000090C80212D54803400F9F
:1006A000002804D0C803C043012188407047EFF3FD
:1006B00000800001000903210907084380F3008836
:1006C000704700207047000010B5024800F02BF87A
:1006D00010BD00000000C07F754600F053F8AE4624
:1006E000050069465346C008C000854618B020B5CD
:1006F000FFF73EFD60BC00274908B6460026C0C58E
:10070000C0C5C0C5C0C5C0C5C0C5C0C5C0C5403DC9
:1007100049008D46704710B50446C046C046204685
:10072000FFF705FD10BD10B50C461107090F09298B
:1007300004D00A290AD008290CD104E01146082067
:10074000FFF7AAFF06E0510606D501E0510601D5E4
:100750000120C007214610BDD10607D501010909B6
:10076000CC084907000E0006044309E0410F2002AF
:100770004907000A0143200E00061D22D141014312
:100780000846E7E700487047F405002001491820B3
:10079000ABBEFEE726000200704770B58C180578E6
:1007A000401C6B075B0F01D10378401C2A1106D156
:1007B0000278401C03E00678401C0E70491C5B1E4A
:1007C000F9D12B0705D40023521E0DD40B70491C00
:1007D000FAE70378401CCB1A921C03E01D780D70D9
:1007E000491C5B1C521EF9D5A142D8D3002070BD14
:1007F000836A0B438362426170470029816801D09C
:10080000012200E002221143816070470029C16883
:1008100002D00122114301E049084900C16070473C
:10082000C26802239A43C260C2680A43C26070472A
:10083000826800210123DB071A4382600F231B0318
:100840008268491CD20FD207994201D0002AF7D101
:100850008168002901DB006C7047002070470000B0
:1008600030B5C268084B8C681A400B680D79234379
:10087000CC686D032C4323430C69496923430B4324
:100880001343C36030BD000003D2FFFF8168042220
:100890001143816070470021016001718160C16076
:1008A000016141617047000001220549920500285D
:1008B000886801D0104300E09043886070470000D2
:1008C000002701400029016802D00122114301E004
:1008D000014A114001607047FEFF000030B5036817
:1008E0000C4A0C6A13408A684D6922430C692C43F8
:1008F00022438C692243CC6922434C6A22438C6A8E
:1009000022431A430260CA6842600A6882604968EA
:10091000C16030BD0F80FFFFF0B50B2706463F04D6
:10092000384600F067F804280FD1084C20690225EA
:1009300028432061666120694021084320613846D0
:1009400000F058F82169A9432161F0BD0020024060
:1009500008490420CA68D20701D001207047CA683C
:10096000D20601D502207047C9684907FBD503208C
:1009700070470000002002400248016980221143B4
:100980000161704700200240F8B5064600200B27A1
:100990003F0400900D46384600F02CF8042815D18D
:1009A0000B4C20690121084320613580384600F056
:1009B00021F8042806D1B61C290C0096318038464F
:1009C00000F018F82169490849002161F8BD0000CC
:1009D0000020024004480169090603D5034941602B
:1009E0000349416070470000002002402301674531
:1009F000AB89EFCD00B50346FFF7AAFF02E0FFF792
:100A0000A7FF5B1E012803D0002B00D1052000BDED
:100A1000002BF4D1FAE7F0B50022032501230C687E
:100A200093401C409C422AD10C79012C01D0022C0D
:100A300012D1876854002E46A640B74387604E798E
:100A4000A64084682643866084889C43848084888A
:100A50008B7993401C438480066853002C469C404D
:100A6000A64306600E7907689E403E430660C6684E
:100A7000A643C660CC799C40C3681C43C460521C2A
:100A8000102ACBD3F0BD4B07DB0E9A40C90810B536
:100A900089000818016A0F249C40A1430162016A81
:100AA0001143016210BD01857047816170470520C7
:100AB00001F0B6F90029016802D00122114301E0DA
:100AC00049084900016070470122920300294168EA
:100AD00001D0114300E091434160704702469269A2
:100AE00000200A4200D001207047000010B50268C3
:100AF0005208520002600268134B8C681A402402AC
:100B00004B681443234303600F230A681B069A4370
:100B10000261026801231A43026000228260C260FF
:100B20000B698A691A43826082680123DB031A43D6
:100B30008260CA680368134303604268034B4969D3
:100B40001A401143416010BDFFE0CF00FF7FFF0757
:100B5000406AC0B2704781627047000070B5049D62
:100B600044688905890D1204034E1143194334402A
:100B700029432143416070BD009800FC70B5FF25FA
:100B800000210446AD05C943FFF732FD06460F4973
:100B900060100C1A2146304603F0E8F9214603F0B4
:100BA000E5F9294603F066FA214603F0DFF9044629
:100BB0000146304603F0DAF9214603F0D7F9294619
:100BC00003F058FA214603F0D1F970BDDF59375FC1
:100BD000044A0029516901D0014300E08143516179
:100BE0007047000000100240044A0029D16901D07A
:100BF000014300E08143D1617047000000100240D2
:100C0000044A0029916901D0014300E081439161C8
:100C1000704700000010024004490A6B10239A43F9
:100C20000A630A6B02430A63704700000010024027
:100C3000044A0029116801D0014300E0814311609A
:100C400070470000000001400CB5002000900190AA
:100C500013491120086013484168416041684160B0
:100C600041687B22D2039143416041680522D2044E
:100C700011434160016801221206114301600168BD
:100C80008901FCD5416889088900416041680222D8
:100C90001143416041680907890F0229FAD10CBD4F
:100CA00000200240001002407047000010B51448B8
:100CB00001680122114301604168124A11404160FC
:100CC0000168114A114001600168012292049143B8
:100CD000016041683F22120491434160C16A0909E1
:100CE0000901C162016BFF22543291430163416BE0
:100CF00049084900416300218160FFF7A5FF10BD4D
:100D0000001002400CB8FF08FFFFF6FE0029018822
:100D100002D00122114301E04908490001807047D7
:100D200040300029818803D00122D203114301E021
:100D30004904490C8180704770B5028C52085200FA
:100D40000284048C8288038B7025AB439B080D883A
:100D50009B001D4302239C438E894B882643104CE5
:100D60003343A04208D00F4CA04205D00E4CA04205
:100D700002D00E4CA0420DD10824A343CC891C43C1
:100D800004239C438B882343094C22400C8A144340
:100D90004A8A22438280058389684163038470BD47
:100DA000002C014000400140004401400048014047
:100DB000FFFC000070B5028C10239A430284048C5F
:100DC0008288038B1A4D2B400D782D062D0C1D4368
:100DD00020239C438B891B051E0C4B8826431B0537
:100DE0001B0C144C3343A04202D0134EB04219D115
:100DF000124E32400E8AB604360C3243A04211D154
:100E00008024A343CC892405240C1C4340239C4309
:100E10008B881B051B0C2343094C22404C8AA404DD
:100E2000240C22438280058389688163038470BD1A
:100E3000FF8C0000002C014000400140FFFB00003F
:100E4000FFF7000030B5028C124B1A400284058C6B
:100E50008288838B104C23400C782406240C1C437E
:100E60000E4B1D400B7B1B071B0C2B438D782D0756
:100E70002D0C1D430A4B984205D10A4B13400A8A98
:100E80009205120C1A438280848389680164058468
:100E900030BD0000FFEF0000FF8C0000FFDF00000E
:100EA000002C0140FFBF000010B50288144B98428F
:100EB00006D00124A407A04202D0124CA04203D1C4
:100EC0007024A2434C8822430F4CA04203D00F4C05
:100ED00022400C89224302804A68C2620A88028545
:100EE000984208D00A4A904205D00A4A904202D05D
:100EF000094A904201D1897A01860121818210BD7F
:100F0000002C01400004004000100040FFFC0000E5
:100F100000400140004401400048014001460348B0
:100F200088600348C8600846704700000AD7A33CA1
:100F3000249A843D002101607047FFB581B01C46B2
:100F400017460E0007D0019D02E02846B047ED1974
:100F50002046641EF9D2019805B0F0BD10B50323F8
:100F6000102207490748FFF7E8FF07480021016002
:100F700004480323082205493030FFF7DEFF10BD87
:100F80001D0F0008B404002078010020350F000870
:100F9000F8B5154E4520000637460025183FB060CD
:100FA00002F0DEFC0024A000395880190F4A01F03D
:100FB000AEFD641C032CF6DB01F04AFAFF20F5308D
:100FC0006D1C8542ECDB45210906B06803F05EF834
:100FD000074D0024B060A0008019294601F084FD6F
:100FE000641C032CF7DBF8BD740400201F856B3FE5
:100FF0000000FA4370B592B020250320694606959B
:1010000008770024CC77092006A9C006FFF703FD66
:1010100001214802FFF7F4FD01210846FFF7D8FD42
:101020002A4806902A4807900220099080200B90B9
:1010300040000C90089480000E950D900A94C0001A
:10104000244D0F9006A910942846FFF747FC1F4E29
:101050000221403E3046FFF7E3FB01213046FFF717
:10106000D5FB6846FFF717FC01206946009408711C
:1010700004200590029404943046FFF7F1FB01210F
:10108000072249043046FFF7B3FB072220213046F0
:10109000FFF7AEFB0120FFF707FC3046FFF7C8FB68
:1010A00001213046FFF7A9FB3046FFF7EFFB012196
:1010B0002846FFF707FC08480088FFF795FA07491C
:1010C00002F054FF0249486012B070BD4024014054
:1010D0003C02002008000240BAF7FF1F6EDB963F7B
:1010E00010B50B49002803D0012808D0002010BDFE
:1010F0000888FFF779FA074902F038FF10BD4888E1
:10110000FFF772FA014602484068FFF76BF910BD1D
:101110003C0200203333B33AF0B58400304887B046
:1011200005597F2168004008C905029002F0A2FF1E
:101130000646294602F01AFF29493039096801910B
:1011400002F014FF05902946029802F00FFF24498F
:1011500020390968009102F009FF0746204808304D
:101160000159284602F092FF1D4904902839096868
:1011700002F0FCFE314602F0F9FE1A4909680391BB
:1011800002F0F4FE059902F057FE154906461039A3
:10119000085108390498096802F0E8FE029902F043
:1011A000E5FE039902F0E2FE394602F045FE0C49E5
:1011B000083908510146304602F03EFE084E10360E
:1011C00030513046083805510099019802F034FE3C
:1011D0000146A01901F088FC305907B0F0BD0000AD
:1011E000B0010020E4010020F8B505460C46480097
:1011F00000D1294C01210026C9078D4203D94C405A
:101200004D408126F605002C09DC204648402C463E
:10121000054601218907304602F00EFE06462146AA
:10122000284602F0FBFE10D82146284602F02EFF89
:1012300007462146284602F0FFFD04467F213D4631
:10124000C905304602F0F8FD064621462846FFF75C
:10125000C9F80446114902F089FE114902F0ECFD7B
:10126000214602F083FE0F4902F0E6FD214602F01E
:101270007DFE04460C49304602F078FE214602F01D
:10128000DBFD0A49884202DD094902F0FFFE0949F7
:1012900002F06CFEF8BD0000567C0A2A4BC887BDE0
:1012A0007EAE36BE42DA833FDB0F493FDB0F49405B
:1012B000DB0FC940E12E654270B5184CE06B002889
:1012C00004D00025012809D0E56370BD0120A0628B
:1012D00002F084FAE06B401CE06370BD172002F05E
:1012E00074FDC00608D58F21002002F093FDE56350
:1012F000A56201F001FF70BD01F0AAF8E16C401A8F
:1013000007498842F7D9E12002F03EFD8F210020F5
:1013100002F080FDE563A56270BD0000980000202A
:1013200010270000F8B501001C481D4D1D4E03D0CC
:10133000012901D01C4D30468A001C498C58002CD4
:1013400001DD274603E00121C90727464F40184920
:1013500002F00CFE214602F009FE0446680013D09C
:101360002946384602F002FE314602F083FE32463C
:10137000104900F04BF901463046FFF733F80146BB
:10138000204602F0F3FD04460B4A0C49204600F0CB
:101390003DF90B4902F0EAFDF8BD00009A99993F2A
:1013A000CDCC4C3F0000803F3333333FB0020020B0
:1013B000000048430AD7233C00C0F94400C0F9C4E8
:1013C00035FA8E3C70B5002506462C46A0003058F4
:1013D000014602F0CBFD294602F02EFD641CE4B26A
:1013E0000546032CF2D3FFF7C9FB01467F20C00559
:1013F000FEF7F8FF70BD30B5002207239C1A641871
:10140000203C855CE47FA54201D0002030BD521C09
:10141000072AF3DB012030BDFEB5072002F0D5FC22
:101420000007400F0026072801D0022000E03046C8
:1014300001246D4D002869D0E86800281DD001F016
:1014400007F807460F21694802F0A9FC00F064FC88
:10145000002853D0686C401C68646868002801D07C
:10146000FFF72AFF2E636E6328692F656F65EE62B2
:10147000E865A86A00283FD040E00F215B4802F0F1
:101480008EFC5A4B1868A42801D0A3283ED1A3286B
:1014900002D157486C6068625348197E4030017031
:1014A000197F4170198C8170998CC17051494E4FD0
:1014B0008868C96800900120019160378100595CFB
:1014C0006A4611543A18203A401CD1770628F5DBB9
:1014D0000621684602F036FC302069460870062175
:1014E000684602F02FFC404829694030415C2520C5
:1014F00002F090FCEC6009E001F0FEFDA869401CE0
:10150000A861092802DD0A206C61A861A86A002888
:1015100001D0FFF7D1FE00F09BFF0746286D391A76
:10152000686A82007D20C000101881420BD9E868EB
:10153000002808D02F65686B002801D1E86D28616C
:1015400001F0DAFD6C63A96A686B084319D1286B56
:101550000090052815D2E868002812D0286D7D215A
:10156000381AC90088420CD9696AFEF732FE014672
:101570000098401C814204D301F0BEFD286B401C42
:101580002863686D391A1C48814206D91B48EC62F1
:10159000066046608660C66002E0E86A002803D004
:1015A000286A002802D011E02C620FE0E869144993
:1015B000381A88420AD90C48EE60062171302C6234
:1015C00002F0C0FB0021052002F024FC00F040FFE7
:1015D000A96D411A0848814205D9686C6E64A864F7
:1015E00000F036FFA865FEBD980000202004002012
:1015F000881300009041000840420F00F0030020D3
:10160000C0E1E40000B502F043F900BD70B5144636
:101610000D46064602F080FC01D2284670BD2146E8
:10162000304602F0FBFC01D2204670BD304670BD52
:10163000F0B57F2489B0E405F8480194807B002848
:1016400002D13F200006019000263546F448B7003D
:10165000C059F44B4200F4495208D8518A4201DC87
:10166000DD510FE00122D207904203D82246002329
:10167000009403E0ED4A0023ED49009201F0F2FCF2
:10168000E849C851761C032EE0DB01F0AFFE0020D4
:10169000FFF748FE019902F069FC06460120FFF7BA
:1016A00041FE019902F062FC06900220FFF73AFE2B
:1016B000019902F05BFC0746D848C078002803D0A7
:1016C000DC480068002834D0DB4806600699876053
:1016D00000264160D948B700C159D748C05902F027
:1016E000D5FCD049761C0C39C851032EF2DB01F031
:1016F00093FF002001F020FD012001F01DFD0220DC
:1017000001F01AFDC548CF4B0278CD48CE49CF4EE7
:10171000002A72D0C24AD768CD4A974202DD0A68D1
:10172000002A6BD000680128FBD0012018600860F7
:10173000BCE00021BB4802F01BFAC64839464068AD
:1017400002F014FC0090C34801210068C90748401A
:10175000394602F00BFC0190BE483946806802F021
:1017600005FC0290BC480590BC480490BC4807901A
:10177000AA48C07B002875D0BA4903C94700490070
:1017800049087F083846039102F048FC00D9039FBE
:101790000499384602F0C0FB05D838460499FEF794
:1017A00021FE049000E004949E48079900684700D9
:1017B0007F08384602F0B0FB05D838460799FEF797
:1017C00011FE074600E027460499059802F0CEFB7B
:1017D0000390A548394602F0C9FB039902F02CFB9F
:1017E00003909C4881680120C007814207D9934F2C
:1017F0003046396802F04AFC22E04BE052E09B4858
:101800008E4F01689A4801603046396802F03EFC0C
:10181000039902F0ABFB06462046039902F036FC22
:1018200003900020FFF778FC009902F005FB39686F
:1018300002F02CFC039902F099FB314602F0FCFA0D
:10184000784E0C3E30607968069802F01FFC70609C
:101850007A488168029802F019FC72490C39886054
:1018600045E7FFE700278148BE0081598048815144
:101870003846FFF751FC6946895902F0DDFA6F4995
:10188000895902F003FC67497F1C0C398851012FEC
:10189000E9DDDDE7774A1D601268012A00D10560A5
:1018A000F5611AE0744A01201D6010600120F061AA
:1018B0001A68002A11D0002814D07049384602F066
:1018C00055FB6F4902F0B8FAB061614887421DDDEF
:1018D0006C480168002917D018E06A48B5610560B6
:1018E0000D6013E068498F4203DA6648B561056010
:1018F0000CE0384602F0CAFB644902F037FBB061E5
:1019000060490120086001E0012101606048006831
:10191000002803D15A48B169814225DA706800284D
:1019200007D000F095FD7168401A5A49884200D9E5
:1019300075600024E0B2002101F010FE641C032C4D
:10194000F8DD554C414822460021083001F0DFF80F
:101950003E48224600210C3001F0D9F8B561012043
:101960003562306009B0F0BD0020306000F070FDDD
:101970007060B06902F09AF90221FEF739FEB16990
:1019800002F05AFA0121C907B061884202D9002049
:10199000B06102E0A04200DDB46140480068002868
:1019A00002D03F48C068B0611C48C078002815D0FC
:1019B0002848B56981683F200006814200DC014665
:1019C0002846FEF70FFD3749B0618D4203DA8842A1
:1019D00001DDB16102E0A04200DDB46132480025C2
:1019E000006801286CD13148324F0168304881428B
:1019F00005DA02F04BFB394602F0B8FA05462E48EC
:101A000001682E48814205DA02F040FB394602F0B7
:101A1000ADFA0546A54254DD254654E020030020DA
:101A2000F0030020B00200200AD7233C000080BF52
:101A30000AD723BC54010020A4050020680400201C
:101A40005C0000206C0000207000002000000020DE
:101A5000CDCCCC3D480100209A99993E00005C42D3
:101A60003333733F980400203333333F8C0400201A
:101A7000B0010020AC0000203C00002077BE7F3F7A
:101A80006F12833A68000020CDCC4C3D9932873FDD
:101A9000C400002040420F00EC51383F5C010020A0
:101AA000A40400206666663F640000202400002035
:101AB000CDCC2C4000004040280000203333534060
:101AC00022E0002D07DD8749284602F04FFA7169B0
:101AD00002F0B2F903E08449706902F0D7FA3F21BD
:101AE00009067061884201DD716105E00121C907C5
:101AF000884201D9002070612846716902F09CF982
:101B0000B16902F0B7FAB061784D286804900146D7
:101B100077488069074602F0B9FA05906E68314649
:101B200002F0B4FAAD68294602F086F9039038460F
:101B3000049902F081F90746314602F0A7FA2946D6
:101B400002F0A4FA01903146059802F075F9294691
:101B500002F09CFA02903846314602F06DF92946AF
:101B600002F06AF900256E460090AF00F059294650
:101B700001F0A6FA6D1CF051032DF6DD0020049053
:101B8000594800250590AF00F059049902F046FA33
:101B900001D2F0590490F059059902F0BDF901D233
:101BA000F05905906D1C042DEDDB7F21C9050498CB
:101BB00002F06CFA3F252D06A84200DD28464C4C69
:101BC000A16802F02BFA04D24A49A06802F034F965
:101BD00003E04949A06802F059FA434FA060A842C7
:101BE00001DDA56003E04549884200D9A160404875
:101BF00001218068C907884200D94148414902F063
:101C0000B5F900280DDD394602F016F90746002423
:101C1000A5007059394602F039FA641C7051042C41
:101C2000F6DB3948006801281ED100252C46A700A4
:101C3000F059294602F070F900D2F559641C042CC1
:101C4000F5DB3248854201D9054603E00120C00793
:101C5000854209D90024A700F059294602F016FA56
:101C6000641CF051042CF6DB00212148284F0D465E
:101C70000162AC0031590120C007814201D9002026
:101C800003E07F20C005814200DD305121483159F9
:101C900002F06CF9394602F0CFF8305101F02AFA1F
:101CA0000146E8B201F05AFC30590121C9078842C7
:101CB00002D90020305104E07F21C905884200DDAF
:101CC000315131590A4C206A02F0B6F86D1C20627D
:101CD000032DCEDD0121C943206AFEF789FC206275
:101CE00040E6000017B7D1386F12833A98050020FC
:101CF000000000200AD7A33B0AD7233CCDCCCCBDA3
:101D000017B7D1B8CDCCCC3D68000020CDCC4CBEAF
:101D1000295C0F3D3D0A773FF8B5354D2868A52869
:101D200064D1002108468200AA58401C51180E2890
:101D3000F9DBC8B2A96B884258D12D48103001F0A8
:101D4000EBF92C4E30602A48183001F0E5F970604C
:101D50002748283001F0E0F9B060288C696A8007D4
:101D6000800D4018FEF738FC234902F0FFF8F060C0
:101D7000297B224C0806C00FA071A868C206D20FAA
:101D8000E2718206D20F22728A06D20F4907E272EE
:101D9000C90FA1720107C90F21706968FA2923D000
:101DA000002161708107C90FA170C007C00F144DD9
:101DB000E0702946306801F001FC30602946706807
:101DC00001F0FCFB706000200E4B0F4D0746012612
:101DD0001F542A5C215C8A4200D01E542954401CA6
:101DE0000E28F5DB0120F8BD0121DAE70020F8BD5F
:101DF00020040020F0030020F7FF7F3A200300209A
:101E0000CDCCCC3E100400200004002008B5C10059
:101E1000081A0090411E009101D30846FAE708BD58
:101E200006460024E0B2002101F098FB641C032C5C
:101E3000F8DD0B4DAF0000240CE0FF2000F03CFE6D
:101E40002846FFF7E3FFFF2000F01EFE2846FFF7BD
:101E5000DDFF641CB442F0DB3846FFF7D7FFEAE74A
:101E6000400D030010B5034901F0E6FF00F004F84F
:101E700010BD0000DB0FC93F70B50446134E144D72
:101E800003E0314601F0D8FF0446AC42F9D8114DC9
:101E9000AC4204DD314602F0F9F80446F8E70120CF
:101EA000C0070D490D4D8442204605D902F05EF869
:101EB000294601F0C1FF04E002F058F8294602F07B
:101EC000D9F8214602F052F870BD0000DB0FC9407E
:101ED000DB0F49C0DB0F49407B81CF3E83F9A23F36
:101EE000FEB500273D460024681CFEF775FB0190F7
:101EF0000E49A8000E58601CFEF76EFB0090A10072
:101F00007158019802F032F8009902F02FF8084950
:101F100002F02CF8394601F08FFF641C0746032CB1
:101F2000E9DB6D1C032DDEDBFEBD0000300200206E
:101F30008D976E3F10B5FFF7D3FF0149086010BDC4
:101F400074000020F8B50020012400F02DF93F4D69
:101F5000A84279D1FF2000F027F9A84274D1204689
:101F6000022500F029F93A494860096801F0AAFF02
:101F700011D100260024B70028466D1C00F01CF982
:101F80003449A200C959641C8850032CF4DB761C28
:101F9000032EEFDB00E00B2528466D1C00F00CF94A
:101FA0002D4C6E1C2060284600F006F9606030461B
:101FB00000F002F9A060342000F0F6F80022034699
:101FC0001146CC0018462041C0B27F2800D901221A
:101FD000491C0429F5DB002A28D12049012008608A
:101FE0001F490860322000F0DFF81E4C20713220BB
:101FF00000F0DAF81C49000A0860332000F0D4F839
:1020000002460021CB00104618416054491C0429A7
:10201000F8DB342000F0C8F8144A03460021CC0055
:10202000184620415054491C0429F8DB352000F0A3
:10203000C3F8FEF787FA0E490860362000F0BCF8B6
:10204000FEF780FA0B490860F8BD00000100AA12F3
:1020500074000020300200207404002018010020C9
:10206000A0000020F80000209C000020D8000020E4
:102070006000002064000020F8B500F0A1F800F036
:1020800081F800200124354901F06EFE34492046D4
:102090000225096800F098F800260024B7003148AE
:1020A000A100C059415828466D1C00F08DF8641CF1
:1020B000032CF4DB761C032EEFDB2B4C28466D1C27
:1020C000216800F081F86E1C2846616800F07CF8F9
:1020D0003046A16800F078F82448006800281FD036
:1020E0002448234C0068217900020143322001F08A
:1020F0003BFE2046FEF75CF80102E078090A000684
:102100000143332001F030FE1B48FEF751F8010275
:102110001948090AC07800060143342001F024FE62
:1021200016487F240068E405002801D0214600E01D
:102130000021352000F048F811480068002801D03F
:10214000214600E00021362000F03EF80349FF2040
:1021500001F00AFE00F024F8F8BD00000100AA1208
:1021600074000020300200207404002018010020B8
:10217000F80000209C000020D80000206000002013
:102180006400002010B50548FEF7C6FB042803D004
:10219000FEF7F2FB012010BD002010BD007C0008FE
:1021A00010B5FEF7E9FB10BD024980004018006839
:1021B00070470000007C000800B5FFF7F5FF00BD88
:1021C00010B5FEF707FC10BD10B501F0CDFD10BD38
:1021D00030B52A4C217881424ED006216218203A2F
:1021E000D27F6254491E0129F8DA2070244923481D
:1021F000FFF701F97F25002802D06570032030BD6C
:102200001F491E48C91DFFF7F6F8002802D0657067
:10221000042030BD1A4919480E31FFF7ECF80028A8
:1022200002D06570012030BD154914481531FFF703
:10223000E2F8002802D06570022030BD10490F4836
:10224000C91FFFF7D8F8002802D06570092030BDFB
:102250000B490A480E39FFF7CEF8002802D0657006
:102260000A2030BD064905481539FFF7C4F8002893
:1022700002D065700B2030BD002030BD90000020E2
:1022800071410008F8B500F061F8040031D0012573
:10229000254F0026012C1CD1386800282AD023485D
:1022A00005603E60FFF7E8FEFFF74CFE00200C23C0
:1022B00002465A431E4B0021D2188B00491CD650AF
:1022C0000329FADB401C0328F1DB00F0C1F81949AF
:1022D00008600221184A022C11D0092C11D00A2CB6
:1022E00019D01648042C1AD0032C02D10F490D60C6
:1022F0000671F8BD00F0D2F8FEF74AFED2E7104BA7
:1023000000E0104B1868002807D000201860081A59
:1023100010603D60F8BD0C4BF4E70120F6E7057155
:1023200002480560F8BD00007C0000203C00002051
:102330003805002058000020400000202003002025
:1023400018010020600000206400002070B53748AC
:10235000374C0068002864D0364B37481A68510063
:10236000490881420BDA9D686D006D08854206DAE6
:102370005D686D006D08854201DA00202FE02F4D69
:10238000AA4202D89E68AE4206D95E6876007608F8
:10239000864201DA012022E0294EB24202DC9A682C
:1023A000B24206DD5A6852005208824201DA022027
:1023B00015E05A68AA4208D9814206DA9D686D0084
:1023C0006D08854201DA032009E0B24208DD81424E
:1023D00006DA996849004908814201DA0420206040
:1023E00000F036F806CC083C914200D0E060E2688C
:1023F000801A144A90420FD9002904D1124A9042FF
:1024000001D90C2005E0114A904204D97F2903D05C
:10241000FF20A06000E0A1606160A068FFF7D8FE27
:1024200070BD7F20A0606060002070BD00000020B3
:1024300080000020F0030020CDCC4C3E333333BF6E
:102440003333333FA086010060AE0A0020A10700AD
:1024500000B501F05DFC00BD1CB523200121400446
:10246000FEF7B6FB01206946087100208871C8712B
:102470000320487104200924E40600902046FEF75A
:10248000CAFA0821009169462046FEF7C4FA0221E3
:10249000009169462046FEF7BEFA1CBDF0B591B02A
:1024A000FFF7D6FF0F9005460B900A9000208100A1
:1024B000574B0CAA5B58401C53500328F7DB8CE0A9
:1024C0000A980A95281A099001D10120099006223C
:1024D0006946432000F09EF90098019900024018D7
:1024E00000B2FEF779F807900298039900024018AD
:1024F00000B2FEF771F806900498059900024018A2
:1025000000B2FEF769F8434E0890307800F068FAA0
:1025100020464149FDF75DFE4048814201D9012135
:1025200000E000213068C207D20F914201D0401C68
:102530003060384801780907090F00260160B400AF
:102540000CAF06A83959005901F068FD04D238597A
:10255000334901F071FC385106A83959005901F08E
:10256000DBFC04D238592E4901F090FD3851E019B6
:102570002C4900F0B9FA38592B494000400801F0C5
:102580005BFC014606AF38594000400801F046FDAB
:1025900006D2FFF75DFF0B901E48012101600BE0A2
:1025A0000998FEF721F8214900F0EEFA0246184892
:1025B0003959201800F0ABFA761C032EBFDB7D24BE
:1025C000E400FFF745FF401BA04203D20A20FFF7BB
:1025D0001DFCF6E7FFF73CFF05460B982C1A144844
:1025E000844205D20F981349281A884200D267E71F
:1025F0000B98291A0E48814207D20020044A01464E
:102600008300401CD1500328FADB11B0F0BD00005C
:10261000800400203001002024F40000127A000021
:10262000CDCCCC3D000048440000C8420024F44812
:1026300080841E00C0E1E40010B58AB00220694623
:10264000087101208871C871032040020924E40642
:1026500000902046FEF7DFF9042209212046FEF70C
:1026600012FA04220A212046FEF70DFA012148053C
:10267000FEF7BAFA01210846FEF7C2FA01218805E1
:10268000FEF7D6FA0121C805FEF7D2FA1020FEF7B0
:10269000C3FA0B48029000200F2104910390AB2154
:1026A000084C059007900691089002A92046FEF775
:1026B0001DFA01212046FEF7FDF90AB010BD000009
:1026C0001808700000540040F8B50F461646012166
:1026D00000F03AF80920800201230090F2B25B0674
:1026E000D0211248FEF73AFA114D0020287018E068
:1026F000002408E0641C600B05D00E490868401CEB
:1027000008600020F8BD04210848FEF7E7F900281A
:10271000F0D00648FEF71CFA29788A00B850491C08
:1027200029702878B042E3DB0120F8BD0054004056
:10273000600200204402002008B501226946FFF72C
:10274000C3FF009808BD0000F3B581B00F46002418
:102750001A4D1B4E02E0641C600B22D10121C903FB
:102760003046FEF7BBF90128F5D001204003009068
:10277000FAB20023D0213046FEF7F0F902E0641CE3
:10278000600B0ED102213046FEF7A8F90028F6D0E2
:102790000198C1B23046FEF7DEF907E0641C600B19
:1027A00004D02868401C28600020FEBD012130466E
:1027B000FEF794F90028F1D00120FEBD440200206C
:1027C0000054004070B50D4600240221FFF7BCFF05
:1027D000E9B20C4D2846FEF7BEF907E0641C600B19
:1027E00004D009490868401C086070BD4021284693
:1027F000FEF774F90028F1D001212846FEF764F9AC
:1028000070BD0000005400404402002010B5FFF7E6
:1028100013FF10BD10B5FFF757FF10BD10B5FFF740
:102820008BFF10BD10B5FFF7CDFF10BDF0B54C4CC0
:102830004C4D87B02168286801F028FC2860616849
:10284000686801F023FC6860A168A86801F01EFCBC
:1028500000240A27FF43A860A600A8593946FDF7BF
:10286000C7FE641CA851032CF6DB3F480024006817
:1028700004AF00903D48A6008059009901F076FB16
:10288000641CB851032CF5DB394E0498346821469A
:1028900001F06CFBB16801F0EDFB01900199049827
:1028A00001F064FB214601F0C7FA0746019905983B
:1028B00001F05CFB716801F0BFFA044621460598FF
:1028C00001F054FB019901F0D5FBB0602146069858
:1028D00001F04CFB394601F0CDFB3060069A014611
:1028E000104601F043FB214601F0A6FA70601D4836
:1028F000FEF768FD1F49204A4118914222D27F22EB
:10290000D205014600241046FDF76CFD0090A7009B
:10291000E95901F02BFB641CE851032C01DA009803
:10292000F5E711483F210906006800F03FF9074626
:102930000024A000295880193A4600F0E8F8641CE9
:10294000032CF6DBB1683068FEF74EFC0B4C2060C0
:10295000B1687068FEF748FC606007B0F0BD000029
:10296000740400205C04002054000020680400204F
:1029700048010020CCCCCCC0323373009804002036
:10298000F8B500250D4F00F0EBFF0024A6000A214A
:10299000B859C943FDF72CFE01460948094A3018C9
:1029A00000F0B5F8641C032CF0DB7D20C000FFF7BD
:1029B0002DFA6D1C642DE6DBF8BD00005C040020E0
:1029C000480100209A99593F0EB500226B461A80A3
:1029D0005A8001911A819A726946FEF765FA0EBD16
:1029E00070B50646FFF734FD194C21692061451A80
:1029F0003046FDF7F9FD174901F0B8FA0646012106
:102A0000204689070C3000F06FF82846FDF7ECFDF2
:102A100005463046616801F039FB294601F0A6FA07
:102A20000D4901F0A3FAE16801F006FA0B49E060F4
:102A3000884205DDFF2000F03FF87F20C00503E05D
:102A4000FF2000F021F800206060002070BD000031
:102A50001C0100208988883D6F12833A48E1FA3EC4
:102A600070B50D460446FFF7F3FC2146FDF7B1FBB8
:102A70006C432009814203D9032000F01DF870BD8A
:102A8000032000F001F870BD70B50446094DC00781
:102A900003D004212846FEF708F8A00703D5082133
:102AA0002846FEF702F8600703D502212846FDF705
:102AB000FAFF70BD0000004870B50446094DC0071C
:102AC00003D004212846FDF7EEFFA00703D5082117
:102AD0002846FDF7E8FF600703D502212846FDF7E9
:102AE000E4FF70BD0000004870B504460120C00737
:102AF0000D4645400E46206801F090FA00D226604F
:102B00002846216801F08AFA00D2256070BD70B5B0
:102B100005460C467F2016461146C00501F0B6FA60
:102B2000214601F023FA04463146286801F01EFAD6
:102B3000214601F081F9286070BD0000F3B5104E08
:102B4000104F8C0083B03159786901F00FFA019071
:102B500030460C3805593869294601F007FA0090CB
:102B6000B969039801F002FA009901F065F9019939
:102B700001F08CFA314635510C39085105B0F0BDE1
:102B8000D4050020C801002010B5FDF72BFC7F24E0
:102B9000E405214601F06EFAA04201DD204610BD99
:102BA0000121C9078842FAD9002010BD10B501F0F3
:102BB000DDF97F24E405214601F05CFAA04201DD45
:102BC000204610BD0121C9078842FAD9002010BD56
:102BD000F8B5164A09018C1805462768A16860688F
:102BE00001F02AF90090E16801F026F901467F2002
:102BF000C005FDF7F7FB009901F0B8F90646394624
:102C0000284601F043FA314601F0B0F9394601F0A7
:102C100013F905467F203146C00501F037FA0099C7
:102C200001F0A4F9256060602846F8BDB4040020D6
:102C30000EB57D20C000FFF7E9F8FEF7E3FCFFF7D3
:102C40000BFCFF20FFF738FF00F008FF01F04AF807
:102C5000EC48FFF7DBF8FFF7D9FD00F005FC002199
:102C6000084600F07BFC0021012000F077FC0021E9
:102C7000032000F073FC0021022000F06FFC00F044
:102C800043FE00F03FFE002836D0FEF7B3F9DE49E0
:102C900001208873FFF74EF9FFF754F900F00EFD9D
:102CA000DA4E00240020FEF71BFAB16801F05EF94D
:102CB00005460120FEF714FA0146D54FD3483A469F
:102CC0000830FFF724FF3A462946D048FFF71FFF98
:102CD000D048641C8442E5DBCF4D30680624009068
:102CE0002046FDF779FC074601460098FDF77AFB80
:102CF000A84203DD776104E0042037E0641E002C65
:102D0000EEDC71690098FDF76DFBC449884201DA79
:102D100002202BE0FFF7C2FB00F07CFCFFF730FE47
:102D2000BF480068002801D007201FE0FFF790FB94
:102D30007063FFF78DFBB54C0546606B281AFDF7F5
:102D400053FC2063002802DC7F20C0052063B549C6
:102D500001F00CF9B4492063884201DD062005E04A
:102D6000AF4865630068142802DD0820FFF758F8B3
:102D700000F0F6FDFEF75CFCFFF758FD0020FEF7C3
:102D8000AFF9A24CA16801F0F1F806460120FEF768
:102D9000A7F901469E4F20463A460830FFF7B7FE96
:102DA000A2483A46016820460C30FFF7B0FEA04921
:102DB000606901F0DBF801909E4A01A82168FFF7E5
:102DC000A6FE3A4631462046FFF7A1FE0121C9433F
:102DD0000198FDF70DFC06469749206801F0C6F8FA
:102DE000314601F053F90090E4689448844256DD7E
:102DF000864F786A0646FDF7EFFB904901F0B6F87A
:102E0000214601F0B3F8009901F016F87E49B400AC
:102E1000703108510646F86A002808D00020303981
:102E20008200401C8E500C28FADB0020F8627648A5
:102E300083491030005901F099F8734F02904037E0
:102E40003959304601F022F9029900F0F5FF394670
:102E50003E5130390851014601F088F83E4601469E
:102E60006036A019774AFFF752FE68486749406A02
:102E7000401C48620C2812DB0020486230680024A5
:102E80000290A700F059029901F046F804D2F059D7
:102E900002905E48611C8162641C0C2CF1DB5B4F6C
:102EA0003869002800D06548674900F0C5FF06462C
:102EB000B86AFDF791FB614C214601F057F8F968BB
:102EC00001F054F8009900F0B7FF314601F024F802
:102ED00003D35E493868884201DA012000E000200F
:102EE0003861B86AFDF778FB214601F03FF8F968D0
:102EF00001F03CF8009900F09FFF786054480068AA
:102F0000002801D0FFF7BEF9386900280FD008214A
:102F10005048FFF7A5FD3C48C07B002803D04E4831
:102F20000068002801D004205CE004205EE04B48EB
:102F30000068002808D048480068002806D00F2103
:102F40004448FFF78DFDEEE70C211BE02E48C07BC7
:102F5000002807D00026B869002817D0386A002852
:102F600002D004E00126F6E7FFF772FA3862FFF7B5
:102F70006FFA396A411A3748814202D90020B86194
:102F8000386208211F48FFF76BFD31E0F86900281F
:102F900025D0FFF75DFA0446386A002809D13C6263
:102FA000002E03D00320FFF76FFD02E00320FFF7A0
:102FB00083FD386A211A2748814201D8386A04E023
:102FC000F869401EF861002038622549201A8842BD
:102FD0000ED9002E01D0032004E0032006E0002ECD
:102FE00003D00720FFF768FD02E00720FFF74CFD44
:102FF000FEF712FA7D24E400FFF72AFA401BA042F4
:10300000FAD396E6A08601002003002024000020C9
:10301000492E7F3F88130000CDCC6C4033335340A2
:1030200044020020BD3786350AD7A33C200000208B
:103030006666864029EA7F3F0000A03FCDCCCC3DAC
:1030400042F27C3F67B17F3F00006040CDCC2C4016
:103050000000002020A10700C4000020A4000020E0
:10306000E0930400FFB581B007460E4610460A9D66
:1030700001F00CF804462846049901F007F80546CB
:103080003146384601F002F8294600F06FFF21462C
:10309000FDF7A8F9049900F0CFFE05B0F0BD0000DF
:1030A00010B506490868002807D000200860091DEF
:1030B00008710920C006FDF7AEFC10BD48020020D3
:1030C00070B50A4601460748074D94000368601929
:1030D000002B04D0054AFFF71AFD285970BD044A99
:1030E000F9E7000060000020C00200204E09183FF0
:1030F00076C63F3F7047000010B50649087C401C6B
:103100008007800F08614031095C252000F082FEB5
:1031100010BD00009800002010B5416800788007BD
:10312000800DFF38FF3802380818FDF755FA0821DE
:10313000C943FDF75DFA10BDF0B506469E489F49AC
:10314000C2789F489F4F0068B4008FB0002A03D018
:10315000994AD27B002A11D0002803D0385900F0B8
:1031600005FF3851022E1ADA964918310859C2075C
:10317000401CD20F0851002A07D010E00028EDD1E2
:10318000914800680028E9D0ECE78E483146483085
:10319000005900F0CDFC01468A480C3001518B48A3
:1031A0000025015987483C30005900F08BFE04D1BE
:1031B00087480059002800DD012584480121005975
:1031C000C90748407F493C31095900F07BFE06D1D0
:1031D0007F4801590120C007814200D90125022EF4
:1031E0000BDA78480C3001593C30005900F04EFFA2
:1031F000400078494008884227DC002D25D17148DD
:103200000221543005592846FDF7F2F96D49603125
:10321000095900F011FE6E490959009100F00CFEA9
:103220006D4900F0A3FE6D49095900F09FFE6C49FD
:10323000096800F09BFE395900F0FEFD38516148E5
:10324000603005510C380099015160480C3001592B
:103250005C482018FFF748FC6048183007595C4864
:103260003946005900F082FE5C490C390959009139
:1032700000F07CFE534D7F2101903C35C905384656
:1032800000F004FF009900F071FE564909590391BE
:1032900000F06CFE019900F0CFFD4A49095900F099
:1032A000CBFD28514D480C3000590290002801DC1C
:1032B000285972E040480AA9C27B07A8002A06D014
:1032C000464A243A12590251444A183A05E03D4A06
:1032D000603A125902513B4A543A12590A51005964
:1032E0007F22D2050090904208590190014604AF18
:1032F000104608DA00F0CAFE0D903B4801990059CB
:10330000400040080BE000F0C1FE0D9000990198CC
:10331000FDF768F80146344800594000400800F0C5
:1033200025FE0D9900F088FD3851264824300159BA
:10333000039800F0ABFE029900F018FE27494439CB
:10334000C9690D9100F012FE0E901E4830300159EF
:10335000183002590192104600F098FE029900F0D0
:1033600005FE009900F002FE395900F0FFFD0D99AD
:1033700000F0FCFD0E9900F089FE1249019A3031EF
:103380000A51104A0399243211513146FFF7D6FBF6
:103390000146285900F050FD285110494439C968A8
:1033A00000F0E4FD2851094801596019FFF79CFB22
:1033B00028590FB0F0BD00002003002048E17A3FFB
:1033C000000000205C05002068000020A0410008EB
:1033D000A4020020CDCCCC3D7EAA2A3E0C020020C7
:1033E0005400002068040020B0020020F8B5144802
:1033F00001681448FCF7F6FF134CE06113480168BC
:1034000013480068FCF7EEFF7F25124EED053346AA
:10341000114A12490095FFF725FEE060B04201DD38
:10342000E66002E0A84200DAE5600D48C0780028B6
:1034300004D00C49E06800F099FDE060F8BD0000A0
:103440005400002017B7513BC8010020380000206D
:1034500024000020713DAA3F6666764000002040AF
:10346000200300206666663FFEB5022569460D71A1
:103470000320487100248C71CC7101212846FDF78E
:10348000B3FB314F31483946FFF79EFA01210E0256
:103490003046FDF7A9FB39462D4F3846FFF794FA21
:1034A0002C48602101800121418084810682846052
:1034B00010200924E406009069462046FDF7ABFA87
:1034C000042211462046FDF7DEFA22493846FDF770
:1034D00033FC4020009069462046FDF79CFA01220B
:1034E00006212046FDF7CFFA1A491848FDF724FCBB
:1034F0008020009069462046FDF78DFA01220721C1
:103500002046FDF7C0FA13491048FDF753FC124C52
:10351000694620460095FDF77EFA012211462046B5
:10352000FDF7B1FA0B490948FDF78CFC012107486A
:10353000FDF7ECFB01210548FDF7F2FB01213846C0
:10354000FDF7E4FBFEBD0000CF07000000040040D3
:1035500000200040E00500200004004810B50A46A5
:1035600004461249104600F001FDFCF7EBFF00286D
:1035700001DA002003E00E49884200DD0846002CF5
:1035800009D0012C0CD00B49022C0CD0032C01D1FA
:1035900080B2886310BD074980B24031086010BD19
:1035A00080B2054900E080B2486310BD00E0F944F4
:1035B000CF0700000004004000200040F8B5064698
:1035C0007F20C0050C46814201DD044603E010491E
:1035D0008C4200D90C462146074600F057FD314683
:1035E00000F0C4FC05463146084600F0BFFC3146F9
:1035F00000F0BCFC214600F0B9FC294600F01CFCA0
:10360000009039466846FFF76FFA0098F8BD000051
:10361000000080BF70470000FEB5254D254C2F6887
:10362000A6683946304600F0A1FC2349096800919C
:1036300000F09CFC616800F01DFD3946019000F02F
:1036400095FC009900F092FC314600F0F5FB07462E
:103650006868029026680146304600F087FC0099B1
:1036600000F084FC394600F005FDA060029900F0EE
:103670007DFC009900F07AFC314600F0DDFBAD687E
:1036800006462946019800F071FC009900F06EFC96
:10369000314600F0EFFC2946206000F067FC0099FD
:1036A00000F064FC019900F0C7FB6060FEBD000003
:1036B000680400205C050020540000207CB54348CD
:1036C000012585730021C1730221414800F03AFBB6
:1036D0003F480721773000F035FB3D480621653033
:1036E00000F030FB3A480421383000F02BFB642016
:1036F000FEF78CFB364806216B3000F023FB0021DF
:10370000012000F087FB0121022000F083FB39211A
:10371000062000F07FFB0F21112000F07BFB002131
:10372000042000F077FB0321084600F073FBE22041
:1037300000F02AFB0021052000F06CFB38211D2041
:1037400000F068FB00F084F9FD2000F0C5F90020CE
:1037500000F0C2F900F076F98F21002000F05AFB4A
:103760000F2000F032FBC62802D00320FEF758FBE2
:10377000174CA068002827D016486A4603C8019154
:1037800000900120214660310B18203BDB7F135451
:10379000401C0628F8DB0621104600F0D3FA302042
:1037A000694608700621684600F0CCFA084821698D
:1037B0004030415C252000F02DFBE560606800286A
:1037C00001D0054860627CBD25627CBD20030020DD
:1037D00098000020904100088813000070B590B058
:1037E00000206C4681006050401C0F28FADB8520C9
:1037F00000902248224D066822480196294600681A
:1038000000F0B4FBFCF79EFE0104C0B2090E049068
:1038100003911D482946006800F0A8FBFCF792FEC2
:103820000104090EC0B2194D05910690A86CC10F94
:1038300008184010FF2800DDFF200790002E03D05D
:103840000398082108430390002108468200A258EB
:10385000401C51180E28F9DBE1200E9100F094FA7B
:103860008221002000F0D6FA0F21684600F0BEFA4F
:10387000FEF7EEFDE86410B070BD000034000020DB
:103880000000C842240000202800002098000020EA
:103890001B48016801221143016001688907FCD5BA
:1038A000416889088900416041680907890FFBD197
:1038B0000168012212069143016001688901FCD46C
:1038C00041683F231B049943416041687B23DB032C
:1038D0009943416041680723DB0419434160016853
:1038E0001143016001688901FCD54168022211433E
:1038F000416041680907890F0229FAD17047000029
:10390000001002400120704710B580216B20FEF7A7
:1039100089FF1248FEF77AFA01216B20FEF782FF39
:103920007520FEF77BFF682801D0012400E0002409
:103930006420FEF76BFA18211C20FEF773FF002CA1
:1039400003D005211D20FEF76DFF18211B20FEF777
:1039500069FF00211A20FEF765FF10BD409C0000A2
:10396000F0B593B00E2269463B20FEF753FF029854
:1039700003990002401800B2FCF72EFE2E4C206086
:10398000009801990002401800B24042FCF724FE62
:103990006060049805990002401800B2FCF71CFE14
:1039A000A060089809990002401800B2FCF714FEC4
:1039B00011900A980B990002401800B2FCF70CFE17
:1039C00010900C980D990002401800B2FCF704FE0C
:1039D000129024342168109800F058FB1090616810
:1039E000119800F053FB1190A168129800F04EFB63
:1039F00012900120109AC00711994240109111466F
:103A00004140119112990C4F4140002410AE0C37E7
:103A10001291A5007059094900F0A8FA084900F070
:103A2000A5FA70512146FFF7D3F8641C7851032C96
:103A3000EFDB13B0F0BD00005C04002000007A3D15
:103A400035FA8E3C01490120886170470014004816
:103A5000014901200881704720140048FEB5012467
:103A60006846047100258571C471032646710220E1
:103A70000B4F009069463846FCF7CDFF6946384643
:103A80000094FCF7C8FF0748046005718571C47194
:103A9000467101460920C006FCF7BDFFBC61FEBDB2
:103AA000001400484C02002070B4002007210223BB
:103AB000074C0925074EED06A3614200288A338191
:103AC000C007C00F1043491EF6D570BC70470000F8
:103AD0000014004820140048F8B504460F48092691
:103AE0000168F6060125002906D105600C4805711C
:103AF00001463046FCF78FFF07210A4B0A4F022090
:103B000022460A41D20701D0B56100E01D81B861AB
:103B1000064A1081491EF3D5F8BD00004802002076
:103B20004C020020200000480014004820140048E7
:103B300070B50C4AC9008C18054660680A492060B7
:103B400000F014FA06460949284600F00FFA3146FB
:103B500000F072F9606022680146104600F06CF9CE
:103B600070BD0000E404002007715D3FE23B8A3D28
:103B7000F8B5474D04460168286800F0A3F904D160
:103B80006168686800F09EF955D020682860606818
:103B9000404E68603146606800F0E8F93E4F3946B3
:103BA00000F0E4F905463146206800F0DFF93946B7
:103BB00000F0DCF90646FEF75FF9354C083420606A
:103BC0002846FEF759F960602846FEF74BF905468E
:103BD0003046FEF747F9294600F0C8F90646A060CE
:103BE0006068014600F0C2F905462068014600F011
:103BF000BDF9294600F020F92849054688420FDD25
:103C00003146084600F0B2F97F21C90500F032FACA
:103C100001462846FCF7E6FBFCF7B0FF054600E04E
:103C20001F4D2068294600F0A1F9206029466068F0
:103C300000F09CF96060164C1A4E0834A0680090A1
:103C40007068009900F092F9B768054661683846D7
:103C500000F08CF9294600F019FA134D68603068BD
:103C6000009900F083F906463846216800F07EF995
:103C7000314600F00BFA7F24E405286021462846EF
:103C8000FEF732FF2146281DFEF72EFFF8BD00008B
:103C9000340100200000704235FA8E3C6F12833AE6
:103CA000F4FD343F480100208C040020F8B50A4C94
:103CB0000646606809490546206000F057F9074646
:103CC0000749304600F052F9394600F0B5F8294668
:103CD000606000F0DBF9F8BD78010020E379673F10
:103CE000F2BC733F10B50848064941610749CA69EB
:103CF00003231202120A44042243CA610021816193
:103D0000036110BDFF117A0000E000E004ED00E067
:103D10000A48436980690A494A68904201D2121AE6
:103D200001E01B1A9A18486008681218D008C300EE
:103D3000D21A0A608A6810188860704700E000E0B4
:103D40005402002070B50D460646FFF781FE0024A0
:103D500004E0305DFFF7C0FE641CE4B2AC42F8D36F
:103D6000FFF770FE70BD0000064A10B58000801895
:103D7000FCF70AFE042804D0FCF7FEFD0520FEF740
:103D80004FF810BD007C000810B50446FFF760FE38
:103D90002046FFF7A1FEFFF755FE002010BD70B5CD
:103DA0000D4606460024FFF753FE6120FFF794FE00
:103DB000FFF776F904E0FFF777FEA1007050641C6E
:103DC000AC42F8DBFFF73EFE70BD10B5C406E40E52
:103DD000FFF73EFE2046FFF77FFEFFF761F9FFF792
:103DE00063FE0446FFF72EFE204610BD70B50D465B
:103DF00006460024FFF72CFEA020FFF76DFE04E02E
:103E0000A0003058FFF768FE641CAC42F8DBFFF7F7
:103E100019FE70BD70B58406A40E20200D46044323
:103E2000FFF716FE2046FFF757FE2846FFF754FE21
:103E3000FFF708FE70BD000070B501250400ED0716
:103E40004C4020D4441A01D2001B0919C60D4B0066
:103E5000F2B2FF2A29D01B0E2CD000020C02D31A7A
:103E60002C43DC402843051910D2280A02D3401CF9
:103E70006D0611D0761EF6058019FF2A00DA70BD96
:103E8000C00DC00570BD694000F006F90120054372
:103E9000C541521C761CE8E764089C40C90161409A
:103EA0008900E7D10124A043E4E71B0E440200D0BF
:103EB000034870BD002AFCD1C00FC00770BD00BF11
:103EC0000000C07F01230200DB050A430DD4DA4263
:103ED00003D49A4207D488427047D84214D4D942B6
:103EE00012D48842704780427047DA4203D59A4222
:103EF000F9D5814270475B004200DA4204D24A00A1
:103F0000DA4201D28142704710B5024AFCF792FBB7
:103F100010BD00BF0900120401230200DB050A43A3
:103F20000DD4DA4203D49A4207D488427047D8426B
:103F300014D4D94212D48842704780427047DA4282
:103F400003D59A42F9D5814270475B004200DA42BC
:103F500004D24A00DA4201D28142704710B5024AC7
:103F6000FCF768FB10BD00BF0900160470B54200E5
:103F700064414B005C41120E39D01B0E38D0FF2A31
:103F80003CD0FF2B3AD040024902400A490A0600C1
:103F900045184E43000A090AD2184843ED017F3AFA
:103FA0000104731A4019190C4318990F04D0012108
:103FB0005B0849075B1A521CD80904D3401CF5035F
:103FC00001D19D0607D0FF2A08D2D50506D0E40707
:103FD0002043401970BD0125A843F4E7002A01DC05
:103FE000E00770BD2402FF202043C00570BD1B0EFA
:103FF000FF2A03D0FF2B01D0E00770BDFF2645004C
:104000003606B54206D84D00B54203D8D218FF2A6D
:1040100000D0E7E7004870BD0000C07F01230A0020
:10402000DB0502430DD4DA4203D49A4207D481421D
:104030007047D94214D4D84212D481427047894281
:104040007047DA4203D59A42F9D5884270475B003F
:104050004A00DA4204D24200DA4201D28842704772
:104060004840414010B5024A4840FCF7E3FA10BD11
:104070000900160470B50125ED07684004004C40A6
:1040800002D5694000F008F8FFF7DCFE70B50125A5
:104090000400ED074C4022D4441A02D26C40001BAD
:1040A0000919C60D4B00F2B2FF2A4BD01B0E50D09F
:1040B00000020C02D31A2C43DC40A843051B05D593
:1040C000AD0019D36D08761E521E37D0F605280AAA
:1040D00001D2801970BD70416D0603D070BD69407A
:1040E000FFF7B0FE9C4009026140490001D0401E2C
:1040F00070BD0124A04370BD6D081DD001202B0CA4
:1041000001D12D0410302B0E01D12D0208302B0FC0
:1041100001D12D01001DAB0F01D1AD00801CEB0FB3
:1041200001D16D00401C6D00361A121A680AF5059F
:104130004019012A02DB70BD002070BDC036300A74
:10414000C00770BD1B0E440201D1FF2B00D10248F5
:1041500070BD002AF0D070BD0000C07F0C030004C9
:104160000003000C0100010001000C02000200022B
:10417000000C0100010003000C0200020003000C0F
:104180000300030003000C0400040004000000000E
:104190002A000000000000002A00000000000000CB
:1041A0009A99D93F9A99D93F0000003F9A99D93FEF
:1041B0009A99D93F0000003F818283848586878851
:1041C000898B8C8D8E8F919293959697999A9C9DC1
:1041D0009FA0A2A3A5A7A8AAACAEB0B2B3B5B7B929
:1041E000BCBEC0C2C5C7C9CCCED1D4D7D9DCDFE2F2
:1041F000E6E9ECF0F3F7FAFE1C42000800000020AC
:10420000640200009A070008D042000864020020FF
:10421000F4090000F400000845CDFFFF3201290435
:10422000810514CDCCCC3D256666864043803F4950
:1042300030490C0110A94CA90CE1032020C10A1837
:10424000393D910312B80B05293EF6375D50083F02
:104250000A6D679C462A490600081E3A4521EF2C44
:104260005A50A0097B14524185EB41410B14803F09
:104270000C01245A20486340405AA008013712021A
:104280002A2084600D9ED8893F2173943E52215A82
:104290003E1AC09829042F803F9A99993E04412DD7
:1042A000F6285C3E0458086666863F3333B3243EE6
:1042B000C03FA4703D043808CDCC0C3F7B146E0485
:1042C0002D6666663F601A0C043A186801260000E5
:040000050800013DB1
:00000001FF
