:020000040800F2
:10000000000C00203D01000863010008CF0A000831
:1000100000000000000000000000000000000000E0
:100020000000000000000000000000006701000860
:10003000000000000000000069010008C90C000871
:100040006D0100086D0100086D0100086D010008D8
:100050006D0100086D0100086D0100086D010008C8
:10006000000000006D0100086D0100086D0100082E
:100070006D0100086D0100086D0100086D010008A8
:100080006D01000800000000000000006D01000884
:10009000000000006D0100086D0100086D010008FE
:1000A000000000006D010008000000006D01000864
:1000B00000F002F800F032F80CA030C8083824181C
:1000C0002D18A246671EAB4654465D46AC4201D190
:1000D00000F024F87E460F3E0FCCB6460126334290
:1000E00000D0FB1AA246AB4633431847EC3E000053
:1000F0000C3F00000023002400250026103A01D305
:1001000078C1FBD8520700D330C100D50B607047CF
:100110001FB500F065F91FBD10B510BD00F0ECFA79
:100120001146FFF7F5FF02F037FD00F004FB03B4C2
:10013000FFF7F2FF03BC00F039FB00000F4880F32B
:1001400008880F480168090E0E4A914205D10E48F1
:100150000E4901600E480F4901600F4880470F4863
:100160000047FEE7FEE7FEE7FEE7FEE7FEE70000EA
:100170000B480C490C4A0D4B70470000000C002046
:10018000040000001F0000001810024001000000E1
:100190000000014000000000CD0C0008B100000884
:1001A00000060020000C00200008002000080020AD
:1001B00001E004C0091F0429FBD28B0701D502808E
:1001C000801CC90700D00270704700290BD0C307FC
:1001D00002D00270401C491E022904D3830702D5B5
:1001E0000280801C891EE3E70022EEE70022DFE7A1
:1001F000002203098B4273D3030A8B4258D3030BAB
:100200008B423CD3030C8B4221D312E003460B43B9
:100210007FD4002243088B4274D303098B425FD3FF
:10022000030A8B4244D3030B8B4228D3030C8B422B
:100230000DD3FF22090212BA030C8B4202D3121211
:10024000090265D0030B8B4219D300E0090AC30BE6
:100250008B4201D3CB03C01A5241830B8B4201D393
:100260008B03C01A5241430B8B4201D34B03C01A7C
:100270005241030B8B4201D30B03C01A5241C30AF4
:100280008B4201D3CB02C01A5241830A8B4201D365
:100290008B02C01A5241430A8B4201D34B02C01A4F
:1002A0005241030A8B4201D30B02C01A5241CDD2F4
:1002B000C3098B4201D3CB01C01A524183098B423F
:1002C00001D38B01C01A524143098B4201D34B0128
:1002D000C01A524103098B4201D30B01C01A52418B
:1002E000C3088B4201D3CB00C01A524183088B4212
:1002F00001D38B00C01A524143088B4201D34B00FB
:10030000C01A5241411A00D201465241104670476C
:100310005DE0CA0F00D04942031000D34042534071
:1003200000229C4603098B422DD3030A8B4212D331
:10033000FC22890112BA030A8B420CD38901921163
:100340008B4208D3890192118B4204D389013AD0A0
:10035000921100E08909C3098B4201D3CB01C01A75
:10036000524183098B4201D38B01C01A5241430988
:100370008B4201D34B01C01A524103098B4201D376
:100380000B01C01A5241C3088B4201D3CB00C01AE3
:10039000524183088B4201D38B00C01A5241D9D2FB
:1003A00043088B4201D34B00C01A5241411A00D27C
:1003B0000146634652415B10104601D34042002B78
:1003C00000D54942704763465B1000D3404201B5F7
:1003D0000020C046C04602BD70477047704700000D
:1003E00070B5064C7C44064D7D4403E0206800193E
:1003F0008047241DAC42F9D170BD0000103C0000C4
:10040000103C0000F0B5FF252D04C609C209FF27E6
:1004100004462E400137CB093E4348402A402B403A
:100420000746002A6BD0002B69D0AA4267D0AB42A6
:1004300065D0002800DA32460125ED0529432C431A
:1004400009022002090AD21A4B0C7F24E31A434CFA
:10045000000A7C44E35C7D242404121914145B001C
:10046000A218884201D3521C00E0400049420C46C9
:100470005C4324115C43DB016415E318040A5C430C
:10048000C502200D0C4644436419250A5D4323032D
:10049000EC0C0D46654300030019EB184C42A342D7
:1004A00001D35B18401CD4052018002B07D05B003B
:1004B000C91804D3401C002901D1400840003F2145
:1004C00089048A4209D3002A08DC1106090F04D0E6
:1004D000032149074018C00FC007F0BD01224100A9
:1004E000120689187F2252069142F6D20521490749
:1004F000C84201D59010F0BDFF20C005F0BD002F0F
:1005000000DA32461648AA4207D2AB4205D2190297
:10051000090E17D0F80FC007F0BDFF2563002D06A8
:10052000AB42F9D84900A942F6D8AB4201D1A94261
:10053000F2D0A94201D1002101E061004908D005B3
:100540000843F0BD1102090EFBD0FF200243D00585
:10055000F0BD0A460146104654E70000423B000049
:100560000000C07F10B501469E240002CA15A307F3
:10057000002A02D01843002A04DBA21A002A0CDD4C
:10058000D04010BD1206120E01D140004008A21A40
:1005900003D4D04040420028F3DDFF224800120679
:1005A000904201D9002010BDC817C043584010BD6B
:1005B0001F22030C02D10F2200041CD0030E01D114
:1005C0000002083A030F01D10001121F830F01D16D
:1005D0008000921E002801DB4000521ED2055118F7
:1005E000021251181922904004D3491C002801D14D
:1005F0004908490008467047C10FC90700D040426A
:10060000012292071143D3E701218907D0E70000B7
:1006100010B5FF22C30D134009D05A4007D09142B4
:1006200005DA5C42A14202DDC905081810BDC40FFD
:10063000E407002B06D0002A06D0002902DBFF20A9
:10064000C0050443204610BD4102FCD0004810BD47
:100650000000C07F10B5FF231B0644009C421DD83C
:100660004C009C421AD80346124A0B4307D4401A46
:1006700002D3EFF3008010BDEFF3008010BD081A25
:1006800006D2EFF3008001219043C907084302E03E
:10069000EFF30080904380F3008810BD0D231B040E
:1006A0001A4204D01146002000F006F810BD00F0F8
:1006B0001BF810BD00000090C80212D54803400F7F
:1006C000002804D0C803C043012188407047EFF3DD
:1006D00000800001000903210907084380F3008816
:1006E000704700207047000010B5024800F02BF85A
:1006F00010BD00000000C07F754600F053F8AE4604
:10070000050069465346C008C000854618B020B5AC
:10071000FFF72EFD60BC00274908B6460026C0C57D
:10072000C0C5C0C5C0C5C0C5C0C5C0C5C0C5403DA9
:1007300049008D46704710B50446C046C046204665
:10074000FFF7F5FC10BD10B50C461107090F09297C
:1007500004D00A290AD008290CD104E01146082047
:10076000FFF7AAFF06E0510606D501E0510601D5C4
:100770000120C007214610BDD10607D50101090996
:10078000CC084907000E0006044309E0410F20028F
:100790004907000A0143200E00061D22D1410143F2
:1007A0000846E7E700487047A005002001491820E7
:1007B000ABBEFEE726000200704770B58C180578C6
:1007C000401C6B075B0F01D10378401C2A1106D136
:1007D0000278401C03E00678401C0E70491C5B1E2A
:1007E000F9D12B0705D40023521E0DD40B70491CE0
:1007F000FAE70378401CCB1A921C03E01D780D70B9
:10080000491C5B1C521EF9D5A142D8D3002070BDF3
:10081000836A0B438362426170470029816801D07B
:10082000012200E002221143816070470029C16863
:1008300002D00122114301E049084900C16070471C
:10084000C26802239A43C260C2680A43C26070470A
:10085000826800210123DB071A4382600F231B03F8
:100860008268491CD20FD207994201D0002AF7D1E1
:100870008168002901DB006C704700207047000090
:1008800030B5C268084B8C681A400B680D79234359
:10089000CC686D032C4323430C69496923430B4304
:1008A0001343C36030BD000003D2FFFF8168042200
:1008B0001143816070470021016001718160C16056
:1008C000016141617047000001220549920500283D
:1008D000886801D0104300E09043886070470000B2
:1008E000002701400029016802D00122114301E0E4
:1008F000014A114001607047FEFF000030B50368F7
:100900000C4A0C6A13408A684D6922430C692C43D7
:1009100022438C692243CC6922434C6A22438C6A6D
:1009200022431A430260CA6842600A6882604968CA
:10093000C16030BD0F80FFFFF0B50B2706463F04B6
:10094000384600F067F804280FD1084C20690225CA
:1009500028432061666120694021084320613846B0
:1009600000F058F82169A9432161F0BD0020024040
:1009700008490420CA68D20701D001207047CA681C
:10098000D20601D502207047C9684907FBD503206C
:100990007047000000200240024801698022114394
:1009A0000161704700200240F8B5064600200B2781
:1009B0003F0400900D46384600F02CF8042815D16D
:1009C0000B4C20690121084320613580384600F036
:1009D00021F8042806D1B61C290C0096318038462F
:1009E00000F018F82169490849002161F8BD0000AC
:1009F0000020024004480169090603D5034941600B
:100A00000349416070470000002002402301674510
:100A1000AB89EFCD00B50346FFF7AAFF02E0FFF771
:100A2000A7FF5B1E012803D0002B00D1052000BDCD
:100A3000002BF4D1FAE7F0B50022032501230C685E
:100A400093401C409C422AD10C79012C01D0022CED
:100A500012D1876854002E46A640B74387604E796E
:100A6000A64084682643866084889C43848084886A
:100A70008B7993401C438480066853002C469C402D
:100A8000A64306600E7907689E403E430660C6682E
:100A9000A643C660CC799C40C3681C43C460521C0A
:100AA000102ACBD3F0BD4B07DB0E9A40C90810B516
:100AB00089000818016A0F249C40A1430162016A61
:100AC0001143016210BD01857047816170470520A7
:100AD00001F0D2F90029016802D00122114301E09E
:100AE00049084900016070470122920300294168CA
:100AF00001D0114300E09143416070470246926982
:100B000000200A4200D001207047000010B50268A2
:100B10005208520002600268134B8C681A4024028B
:100B20004B681443234303600F230A681B069A4350
:100B30000261026801231A43026000228260C260DF
:100B40000B698A691A43826082680123DB031A43B6
:100B50008260CA680368134303604268034B4969B3
:100B60001A401143416010BDFFE0CF00FF7FFF0737
:100B7000406AC0B2704781627047000070B5049D42
:100B800044688905890D1204034E1143194334400A
:100B900029432143416070BD009800FC70B5FF25DA
:100BA00000210446AD05C943FFF732FD06460F4953
:100BB00060100C1A2146304603F0D0F8214603F0AD
:100BC000CDF8294603F04EF9214603F0C7F8044654
:100BD0000146304603F0C2F8214603F0BFF829462B
:100BE00003F040F9214603F0B9F870BDDF59375FD3
:100BF000044A0029516901D0014300E08143516159
:100C00007047000000100240044A0029D16901D059
:100C1000014300E08143D1617047000000100240B1
:100C2000044A0029916901D0014300E081439161A8
:100C3000704700000010024004490A6B10239A43D9
:100C40000A630A6B02430A63704700000010024007
:100C5000044A0029116801D0014300E0814311607A
:100C600070470000000001400CB50020009001908A
:100C70001349112008601348416841604168416090
:100C800041687B22D2039143416041680522D2042E
:100C9000114341600168012212061143016001689D
:100CA0008901FCD5416889088900416041680222B8
:100CB0001143416041680907890F0229FAD10CBD2F
:100CC00000200240001002407047000010B5144898
:100CD00001680122114301604168124A11404160DC
:100CE0000168114A11400160016801229204914398
:100CF000016041683F22120491434160C16A0909C1
:100D00000901C162016BFF22543291430163416BBF
:100D100049084900416300218160FFF7A5FF10BD2C
:100D2000001002400CB8FF08FFFFF6FE0029018802
:100D300002D00122114301E04908490001807047B7
:100D400040300029818803D00122D203114301E001
:100D50004904490C8180704770B5028C52085200DA
:100D60000284048C8288038B7025AB439B080D881A
:100D70009B001D4302239C438E894B882643104CC5
:100D80003343A04208D00F4CA04205D00E4CA042E5
:100D900002D00E4CA0420DD10824A343CC891C43A1
:100DA00004239C438B882343094C22400C8A144320
:100DB0004A8A22438280058389684163038470BD27
:100DC000002C014000400140004401400048014027
:100DD000FFFC000070B5028C10239A430284048C3F
:100DE0008288038B1A4D2B400D782D062D0C1D4348
:100DF00020239C438B891B051E0C4B8826431B0517
:100E00001B0C144C3343A04202D0134EB04219D1F4
:100E1000124E32400E8AB604360C3243A04211D133
:100E20008024A343CC892405240C1C4340239C43E9
:100E30008B881B051B0C2343094C22404C8AA404BD
:100E4000240C22438280058389688163038470BDFA
:100E5000FF8C0000002C014000400140FFFB00001F
:100E6000FFF7000030B5028C124B1A400284058C4B
:100E70008288838B104C23400C782406240C1C435E
:100E80000E4B1D400B7B1B071B0C2B438D782D0736
:100E90002D0C1D430A4B984205D10A4B13400A8A78
:100EA0009205120C1A438280848389680164058448
:100EB00030BD0000FFEF0000FF8C0000FFDF0000EE
:100EC000002C0140FFBF000010B50288144B98426F
:100ED00006D00124A407A04202D0124CA04203D1A4
:100EE0007024A2434C8822430F4CA04203D00F4CE5
:100EF00022400C89224302804A68C2620A88028525
:100F0000984208D00A4A904205D00A4A904202D03C
:100F1000094A904201D1897A01860121818210BD5E
:100F2000002C01400004004000100040FFFC0000C5
:100F30000040014000440140004801400146034890
:100F400088600348C8600846704700000AD7A33C81
:100F5000249A843D002101607047FFB581B01C4692
:100F600017460E0007D0019D02E02846B047ED1954
:100F70002046641EF9D2019805B0F0BD10B50323D8
:100F8000102207490748FFF7E8FF074800210160E2
:100F900004480323082205493030FFF7DEFF10BD67
:100FA0003D0F00086004002024010020550F0008B8
:100FB000F8B5154E4520000637460025183FB060AD
:100FC00002F0DAFB0024A000395880190F4A01F022
:100FD00052FD641C032CF6DB01F0EEF9FF20F53026
:100FE0006D1C8542ECDB45210906B06802F046FF26
:100FF000074D0024B060A0008019294601F028FDAB
:10100000641C032CF7DBF8BD200400201F856B3F18
:101010000000FA4370B592B020250320694606957A
:1010200008770024CC77092006A9C006FFF703FD46
:1010300001214802FFF7F4FD01210846FFF7D8FD22
:101040002A4806902A4807900220099080200B9099
:1010500040000C90089480000E950D900A94C000FA
:10106000244D0F9006A910942846FFF747FC1F4E09
:101070000221403E3046FFF7E3FB01213046FFF7F7
:10108000D5FB6846FFF717FC0120694600940871FC
:1010900004200590029404943046FFF7F1FB0121EF
:1010A000072249043046FFF7B3FB072220213046D0
:1010B000FFF7AEFB0120FFF707FC3046FFF7C8FB48
:1010C00001213046FFF7A9FB3046FFF7EFFB012176
:1010D0002846FFF707FC08480088FFF795FA0749FC
:1010E00002F03CFE0249486012B070BD402401404D
:1010F000E801002008000240BAF7FF1F6EDB963FB0
:1011000010B50B49002803D0012808D0002010BDDD
:101110000888FFF779FA074902F020FE10BD4888D9
:10112000FFF772FA014602484068FFF76BF910BDFD
:10113000E80100203333B33AF0B58400304887B07B
:1011400005597F2168004008C905029002F08AFE17
:101150000646294602F002FE294930390968019104
:1011600002F0FCFD05902946029802F0F7FD2449A3
:1011700020390968009102F0F1FD07462048083047
:101180000159284602F07AFE1D4904902839096861
:1011900002F0E4FD314602F0E1FD1A4909680391CD
:1011A00002F0DCFD059902F03FFD154906461039B5
:1011B000085108390498096802F0D0FD029902F03C
:1011C000CDFD039902F0CAFD394602F02DFD0C4910
:1011D000083908510146304602F026FD084E103607
:1011E00030513046083805510099019802F01CFD35
:1011F0000146A01901F02CFC305907B0F0BD0000E9
:101200005C01002090010020F8B505460C4648001E
:1012100000D1294C01210026C9078D4203D94C4039
:101220004D408126F605002C09DC204648402C461E
:10123000054601218907304602F0F6FC06462146A4
:10124000284602F0E3FD10D82146284602F016FE9B
:1012500007462146284602F0E7FC04467F213D462A
:10126000C905304602F0E0FC064621462846FFF755
:10127000C9F80446114902F071FD114902F0D4FC8D
:10128000214602F06BFD0F4902F0CEFC214602F030
:1012900065FD04460C49304602F060FD214602F02F
:1012A000C3FC0A49884202DD094902F0E7FD094909
:1012B00002F054FDF8BD0000567C0A2A4BC887BDD9
:1012C0007EAE36BE42DA833FDB0F493FDB0F49403B
:1012D000DB0FC940E12E6542F8B51E4D1E4E0100E0
:1012E0000AD001290AD01D4D30468A001C498C586D
:1012F000002C05DD274607E01A48F6E71A48F4E710
:101300000121C90727464F40184902F027FD214611
:1013100002F024FD0446680013D02946384602F046
:101320001DFD314602F09EFD3246114900F0FAF8EB
:1013300001463046FFF766F80146204602F00EFDF2
:1013400004460C4A0C49204600F0ECF80B4902F028
:1013500005FDF8BDCDCC4C3F0000803F3333333F1B
:101360005C0200203333B33F9A99993F0000484311
:101370000AD7233C00C0F94400C0F9C435FA8E3CBA
:1013800070B5002506462C46A0003058014602F0F4
:10139000E5FC294602F048FC641CE4B20546032C37
:1013A000F2D3FFF7FBFB01467F20C005FFF72AF8C9
:1013B00070BD30B5002207239C1A6418203C855C60
:1013C000E47FA54201D0002030BD521C072AF3DB88
:1013D000012030BDF0B585B0072002F0F0FB00071A
:1013E000400F0027072801D0022000E038460126E0
:1013F000434D00281ED0E86800282BD000F0DCFF09
:10140000044601F02FFE0F213E4802F0C2FB00F01F
:101410009DFC002806D0AF61EF6128696C626F61A6
:10142000AC62E862A868401CA860092802DD0A20B6
:101430006E60A86000F0C0FF0446686A3249201A56
:10144000884233D9E968002930D06C62E869002805
:1014500026D027E00F212B4802F09BFB294801688A
:10146000A429E7D1264C017E20342170017F6170D0
:10147000018CA170818CE1704168009181680191BB
:10148000C16802910169039140690490684602F0C5
:10149000B8FB2869215C252002F0A2FBEE60C9E7B9
:1014A000E86A286101F0DEFDEE611CE0E9690029CF
:1014B00019D1A9690091052915D2E968002912D02E
:1014C0007D21C90088420ED9114A10498018FEF7C3
:1014D0008FFE01460098401C814204D301F0C2FDFA
:1014E000A869401CA861A86A0A49201A884205D93F
:1014F00009486E61076047608760C76005B0F0BD4E
:1015000098000020CC030020C8320000B80B000077
:10151000E703000040420F009C03002000B502F0EA
:10152000C3F800BD70B514460D46064602F0ECFB4C
:1015300001D2284670BD2146304602F067FC01D238
:10154000204670BD304670BDF0B57F278BB0FF05DB
:10155000FE480497807B002802D13F2000060490BB
:10156000FB4E0024FB48A5004059FB4942005208AD
:1015700070518A4201DC00200EE00121C907884237
:1015800004D83A460023F449009703E0F34A0023C5
:10159000F349009201F01CFD641C7051032CE1DB47
:1015A00001F0DEFE0020FFF797FE049902F0D6FB63
:1015B00001900120FFF790FE049902F0CFFB02900A
:1015C0000220FFF789FE049902F0C8FB0390DF4870
:1015D000E44C0079002803D0E3480068002835D0A7
:1015E000E2480199016002994160039900258160F8
:1015F000AE00DE48A159805902F040FCD4496D1C70
:101600000C398851032DF3DB01F0C0FF002001F0FD
:101610004DFD012001F04AFD022001F047FDCB48BD
:10162000D34B4278D348D4490126D44D002A7DD0EB
:10163000C84AD468D24A944202DD0A68002A76D0A9
:101640001A68012AFBD006600E6044E10021C04800
:1016500002F09AF9CB4D0399686802F07FFB049081
:1016600001212868C9074840039902F077FB0590DB
:10167000AD680399284602F071FB0690C2480990B4
:10168000C2480890C2480090B048C249C27B807BE3
:10169000002A7CD0002815D003C940004D006D08F9
:1016A00040082946079002F0B1FB00D8079D089931
:1016B000284602F029FB17D828460899FEF7A2FE13
:1016C000054612E00120C007854233D8B2480168C0
:1016D000B24801600020FFF72FFD049902F0A4FA40
:1016E000216802F0CBFB48E03D4630680099460097
:1016F0007608304602F008FB05D830460099FEF720
:1017000081FE064600E03E462946099802F026FB87
:101710000546A348314602F021FB294602F084FA2F
:101720000646984881680120C00701E0C6E0CEE087
:10173000814202D921680198D3E797480168974808
:1017400001602168019802F099FB314602F006FB26
:1017500005463146384602F091FB06460020FFF769
:10176000EBFC049902F060FA216802F087FB314635
:1017700002F0F4FA294602F057FA754D0C3D286044
:101780006168029802F07AFB686095E0FFE7002844
:101790007CD000253846099902F070FB0A907D49FB
:1017A00003C946004C00640876082146304602F022
:1017B0002DFB00D834462046089902F0A5FA05D83A
:1017C00020460899FEF71EFE079000E00797604844
:1017D000AC000059009946007608304602F094FAB1
:1017E00005D830460099FEF70DFE064600E03E465D
:1017F0000799099802F0B2FA079031460A9802F068
:10180000ADFA079902F010FA07905E48816801204E
:10181000C007814206D95348015901A8005902F076
:101820002DFB23E05C4801595C4801514D480159AA
:1018300001A8005902F022FB079902F08FFA064630
:101840003846079902F01AFB07902846FFF774FC08
:1018500004A9095902F0E8F94249095902F00EFBBE
:10186000079902F07BFA314602F0DEF938496D1C27
:101870000C390851012D92DD3A488168069802F032
:10188000FDFA33490C398860BEE6FFE7002642487E
:10189000B5004159414841513046FFF74DFC04A97C
:1018A000495902F0C1F9615902F0E8FA2849761C59
:1018B0000C394851012EEADDA168DFE70022026001
:1018C00038480068012800D11A60EA6119E0002256
:1018D0000260354A1660EE610068002811D03000C1
:1018E00014D03249204602F039FA314902F09CF90D
:1018F000A861234884421ADD2E480168002915D0CA
:1019000015E000202B4AA861106005E02A498C42AE
:1019100004DA00202749A861086008E0204602F0A8
:10192000ADFA264902F01AFAA86122480660244856
:101930000068002803D11E48A969814262DA6868FC
:10194000002845D000F038FD69683BE0CC0200205B
:101950005C0200209C0300200AD7233C000080BFCB
:101960000AD723BC140400200001002050050020E9
:101970005C0000206C0000207000002000000020AF
:10198000CDCCCC3DF40000209A99993E00005C42F9
:101990003333733F44040020380400205C010020EE
:1019A0003333333F9C0000203C00002077BE7F3F54
:1019B0006F12833A68000020CDCC4C3D9932873FAE
:1019C000AC000020401AC749884201D90020686055
:1019D0000024E0B2002101F07BFD641C032CF8DD43
:1019E000C14C00212246C14801F045F8BF482246BB
:1019F0000021001D01F03FF80020A8612E60286240
:101A00000BB0F0BD0020286000F0D6FC6860A8692B
:101A100002F058F80221FEF7FBFDA96902F004F973
:101A20000121C907A861884202D90020A86102E00B
:101A3000B84200DDAF61AE480068002802D0AD4872
:101A4000C068A861AC480079002815D0AB48AC69E3
:101A500081683F200006814200DC01462046FEF7F7
:101A6000D1FCA749A8618C4203DA884201DDA96153
:101A700002E0B84200DDAF61A248002400680128FE
:101A80003DD1A148A24E0168A048814205DA02F08A
:101A9000F5F9314602F062F904469E4801689E4815
:101AA000814205DA02F0EAF9314602F057F90446BC
:101AB000BC4201DD3C4601E0002C07DD9749204691
:101AC00002F04CF9696902F0AFF803E094496869E3
:101AD00002F0D4F93F2109066861884201DD69619D
:101AE00005E00121C907884201D90020686120462C
:101AF000696902F099F8A96902F0B4F9A861894C02
:101B0000206800900146794808388069064602F04E
:101B1000B5F908906568294602F0B0F9A468214635
:101B200002F082F807903046009902F07DF80646F0
:101B3000294602F0A3F9214602F0A0F905902946B2
:101B4000089802F071F8214602F098F906903046A4
:101B5000294602F069F8214602F066F8002404AE36
:101B60000490A5007059214601F060FA641C705180
:101B7000032CF6DD00200090694800240890A500A1
:101B80007059009902F042F901D2705900907059D1
:101B9000089902F0B9F801D270590890641C042C1D
:101BA000EDDB7F21C905009802F068F93F252D067D
:101BB000A84200DD28464D4C083CA16802F026F9F9
:101BC00004D25949A06802F02FF803E05749A068F1
:101BD00002F054F9524FA060A84201DDA56003E075
:101BE0005349884200D9A1604048012108388068E3
:101BF000C907884200D94F484F4902F0AFF8002882
:101C00000DDD394602F010F807460024A500705992
:101C1000394602F033F9641C7051042CF6DB474856
:101C2000006801281ED100252C46A700F05929463E
:101C300002F06AF800D2F559641C042CF5DB404828
:101C4000854201D9054603E00120C007854209D934
:101C50000024A700F059294602F010F9641CF05145
:101C6000042CF6DB00212148364F08380D4601626E
:101C7000AC0031590120C007814201D9002003E0A6
:101C80007F20C005814200DD30512F48315902F0DC
:101C900065F8394601F0C8FF305101F0E1F901461D
:101CA000E8B201F015FC30590121C907884202D978
:101CB0000020305104E07F21C905884200DD315108
:101CC00031590A4C083C206A01F0AEFF6D1C2062BD
:101CD000032DCDDD0121C943206AFEF799FC206266
:101CE0008EE6000040420F00EC51383F0800002013
:101CF0000801002050040020CC020020F400002045
:101D00006666663F6400002024000020CDCC2C4095
:101D100000004040280000203333534017B7D1382B
:101D20006F12833A440500200AD7A33B0AD7233C0D
:101D3000CDCCCCBD17B7D1B8CDCCCC3D6800002000
:101D4000CDCC4CBE295C0F3D3D0A773FF8B53D4EEA
:101D50003068A52874D1002108468200B258401C82
:101D600051180E28F9DBC8B2B16B884268D13548EA
:101D7000103001F08BF9344C20603248183001F0FB
:101D800085F960602F48283001F080F9A060308C20
:101D9000716A8007800D4018FEF72EFC2B4901F078
:101DA000DDFFE060308B694680100870308A284B78
:101DB00080104870274D00206946095C1A5C9142EA
:101DC00007D0914201D9012200E000222F18BA71F8
:101DD0001954401C0228EFDBB0680107C90F2970B5
:101DE0007168FA292AD0002169708107C90FC007DC
:101DF000A970C00FE8702879174E002802D0E87B40
:101E00000028A87B3146206801F092FB2060314613
:101E1000606801F08DFB60600020104B104C07469D
:101E200001261F54225C295C8A4200D01E54215492
:101E3000401C0E28F5DB0120F8BD01E00121D3E7AD
:101E40000020F9E7CC0300209C030020F7FF7F3A35
:101E500098000020CC020020CDCCCC3EBC0300205A
:101E6000AC03002008B5C100081A0090411E009183
:101E700001D30846FAE708BD06460024E0B2002177
:101E800001F026FB641C032CF8DD0B4DAF00002491
:101E90000CE0FF2000F0C4FD2846FFF7E3FFFF2021
:101EA00000F0A6FD2846FFF7DDFF641CB442F0DB1E
:101EB0003846FFF7D7FFEAE7400D030010B50349A6
:101EC00001F0B2FE00F004F810BD0000DB0FC93FC6
:101ED00070B50446134E144D03E0314601F0A4FEE4
:101EE0000446AC42F9D8114DAC4204DD314601F054
:101EF000C5FF0446F8E70120C0070D490D4D844297
:101F0000204605D901F02AFF294601F08DFE04E0A4
:101F100001F024FF294601F0A5FF214601F01EFF34
:101F200070BD0000DB0FC940DB0F49C0DB0F49402B
:101F30007B81CF3E83F9A23FFEB500273D460024BA
:101F4000681CFEF759FB01900E49A8000E58601C52
:101F5000FEF752FB0090A1007158019801F0FEFEBF
:101F6000009901F0FBFE084901F0F8FE394601F046
:101F70005BFE641C0746032CE9DB6D1C032DDEDBD6
:101F8000FEBD0000DC0100208D976E3F10B5FFF70D
:101F9000D3FF0149086010BD74000020F8B500208F
:101FA000012400F0BBF8214DA8423ED1FF2000F0F3
:101FB000B5F8A84239D12046022500F0B7F81C49EF
:101FC0004860096801F076FE11D100260024B700B0
:101FD00028466D1C00F0AAF81649A200C959641CD5
:101FE0008850032CF4DB761C032EEFDB00E00B257E
:101FF00028466D1C00F09AF80F4C206028466D1C96
:1020000000F094F86060284600F090F8A060352059
:1020100000F08CF8FEF7A6FA08490860362000F0B8
:1020200085F8FEF79FFA06490860F8BD0100AA127C
:1020300074000020DC01002020040020600000204B
:1020400064000020F8B500F075F800F055F80020A5
:102050000124234901F082FD224920460225096816
:1020600000F06CF800260024B7001F48A100C059FA
:10207000415828466D1C00F061F8641C032CF4DB09
:10208000761C032EEFDB194C28466D1C216800F0EE
:1020900055F86E1C2846616800F050F83046A1687B
:1020A00000F04CF812487F240068E405002801D0B5
:1020B000214600E00021352000F040F80D4800687E
:1020C000002801D0214600E00021362000F036F83B
:1020D0000349FF2001F042FD00F01CF8F8BD0000AC
:1020E0000100AA1274000020DC010020200400205E
:1020F000600000206400002010B50548FEF71CFCBD
:10210000042803D0FEF748FC012010BD002010BDBC
:10211000007C000810B5FEF73FFC10BD02498000AE
:102120004018006870470000007C000800B5FFF709
:10213000F5FF00BD10B5FEF75DFC10BD10B501F058
:102140000DFD10BD30B52A4C217881424ED00621BC
:102150006218203AD27F6254491E0129F8DA2070B1
:1021600024492348FFF725F97F25002802D0657010
:10217000032030BD1F491E48C91DFFF71AF900286A
:1021800002D06570042030BD1A4919480E31FFF79E
:1021900010F9002802D06570012030BD154914489F
:1021A0001531FFF706F9002802D06570022030BD16
:1021B00010490F48C91FFFF7FCF8002802D06570CE
:1021C000092030BD0B490A480E39FFF7F2F8002804
:1021D00002D065700A2030BD064905481539FFF761
:1021E000E8F8002802D065700B2030BD002030BD1B
:1021F00090000020613F0008F8B500F05BF8040093
:102200002FD00126234F0025012C1CD1386800282F
:1022100028D0214806603D60FFF714FFFFF7BEFE9F
:1022200000200C2302465A431C4B0021D2188B007D
:10223000491CD5500329FADB401C0328F1DB00F0D0
:10224000BBF8174908600221164A092C0FD00A2C46
:1022500014D01548042C19D0032C02D10E490E605D
:102260000571F8BD00F0CEF8FEF7A2FED4E70F4BE3
:1022700005E01860081A10603E60F8BD0C4B186845
:10228000002801D00020F4E70120F2E7067102489F
:102290000660F8BD7C0000203C000020E404002023
:1022A0005800002040000020CC02002060000020E8
:1022B0006400002070B53748374C0068002864D0AF
:1022C000364B37481A685100490881420BDA9D683D
:1022D0006D006D08854206DA5D686D006D08854207
:1022E00001DA00202FE02F4DAA4202D89E68AE42AC
:1022F00006D95E6876007608864201DA012022E07F
:10230000294EB24202DC9A68B24206DD5A68520097
:102310005208824201DA022015E05A68AA4208D91E
:10232000814206DA9D686D006D08854201DA03205E
:1023300009E0B24208DD814206DA9968490049089D
:10234000814201DA0420206000F036F806CC083C17
:10235000914200D0E060E268801A144A90420FD99E
:10236000002904D1124A904201D90C2005E0114AFB
:10237000904204D97F2903D0FF20A06000E0A16033
:102380006160A068FFF7DEFE70BD7F20A060606026
:10239000002070BD00000020800000209C03002071
:1023A000CDCC4C3E333333BF3333333FA0860100B3
:1023B00060AE0A0020A1070000B501F0B5FB00BD2A
:1023C0001CB5232001214004FEF712FC01206946C0
:1023D000087100208871C871032048710420092405
:1023E000E40600902046FEF726FB0821009169468E
:1023F0002046FEF720FB0221009169462046FEF7A9
:102400001AFB1CBDF0B591B0FFF7D6FF0F90054643
:102410000B900A9000208100574B0CAA5B58401C7F
:1024200053500328F7DB8CE00A980A95281A099084
:1024300001D10120099006226946432000F09EF94F
:10244000009801990002401800B2FEF7D5F80790F5
:10245000029803990002401800B2FEF7CDF80690EA
:10246000049805990002401800B2FEF7C5F8434EE3
:102470000890307800F068FA20464149FDF7B8FE30
:102480004048814201D9012100E000213068C207A3
:10249000D20F914201D0401C3060384801780907C2
:1024A000090F00260160B4000CAF06A83959005985
:1024B00001F0ACFC04D23859334901F0B5FB385176
:1024C00006A83959005901F01FFC04D238592E4989
:1024D00001F0D4FC3851E0192C4900F0B9FA385910
:1024E0002B494000400801F09FFB014606AF3859D8
:1024F0004000400801F08AFC06D2FFF75DFF0B9018
:102500001E48012101600BE00998FEF77DF8214982
:1025100000F0EEFA024618483959201800F0ABFADC
:10252000761C032EBFDB7D24E400FFF745FF401B34
:10253000A04203D20A20FFF795FCF6E7FFF73CFF25
:1025400005460B982C1A1448844205D20F9813495B
:10255000281A884200D267E70B98291A0E48814250
:1025600007D20020044A01468300401CD1500328B2
:10257000FADB11B0F0BD00002C040020DC000020CC
:1025800024F40000127A0000CDCCCC3D0000484479
:102590000000C8420024F44880841E00C0E1E4002A
:1025A00010B58AB002206946087101208871C8718F
:1025B000032040020924E40600902046FEF73BFA7F
:1025C000042209212046FEF76EFA04220A21204641
:1025D000FEF769FA01214805FEF716FB01210846BE
:1025E000FEF71EFB01218805FEF732FB0121C8051D
:1025F000FEF72EFB1020FEF71FFB0B480290002079
:102600000F2104910390AB21084C0590079006918F
:10261000089002A92046FEF779FA01212046FEF72C
:1026200059FA0AB010BD00001808700000540040AC
:10263000F8B50F461646012100F03AF8092080024D
:1026400001230090F2B25B06D0211248FEF796FA01
:10265000114D0020287018E0002408E0641C600B75
:1026600005D00E490868401C08600020F8BD042110
:102670000848FEF743FA0028F0D00648FEF778FA3B
:1026800029788A00B850491C29702878B042E3DBC9
:102690000120F8BD005400400C020020F001002091
:1026A00008B501226946FFF7C3FF009808BD000086
:1026B000F3B581B00F4600241A4D1B4E02E0641C96
:1026C000600B22D10121C9033046FEF717FA012819
:1026D000F5D0012040030090FAB20023D02130460B
:1026E000FEF74CFA02E0641C600B0ED1022130466A
:1026F000FEF704FA0028F6D00198C1B23046FEF782
:102700003AFA07E0641C600B04D02868401C28607B
:102710000020FEBD01213046FEF7F0F90028F1D07F
:102720000120FEBDF00100200054004070B50D46B0
:1027300000240221FFF7BCFFE9B20C4D2846FEF74A
:102740001AFA07E0641C600B04D009490868401CB1
:10275000086070BD40212846FEF7D0F90028F1D06E
:1027600001212846FEF7C0F970BD0000005400406A
:10277000F001002010B5FFF713FF10BD10B5FFF7F3
:1027800057FF10BD10B5FFF78BFF10BD10B5FFF759
:10279000CDFF10BDF0B54C4C4C4D87B0216828687A
:1027A00001F06CFB28606168686801F067FB686095
:1027B000A168A86801F062FB00240A27FF43A86013
:1027C000A600A8593946FDF723FF641CA851032C25
:1027D000F6DB3F480024006804AF00903D48A600A7
:1027E0008059009901F0BAFA641CB851032CF5DB4A
:1027F000394E04983468214601F0B0FAB16801F00E
:1028000031FB01900199049801F0A8FA214601F0EA
:102810000BFA07460199059801F0A0FA716801F0DA
:1028200003FA04462146059801F098FA019901F04F
:1028300019FBB0602146069801F090FA394601F084
:1028400011FB3060069A0146104601F087FA2146D6
:1028500001F0EAF970601D48FEF792FD1F49204A19
:102860004118914222D27F22D2050146002410460F
:10287000FDF7C8FD0090A700E95901F06FFA641C4C
:10288000E851032C01DA0098F5E711483F210906C9
:10289000006800F03FF907460024A000295880197D
:1028A0003A4600F0E8F8641C032CF6DBB1683068A7
:1028B000FEF7AAFC0B4C2060B1687068FEF7A4FC20
:1028C000606007B0F0BD0000200400200804002074
:1028D0005400002014040020F4000020CCCCCCC014
:1028E0003233730044040020F8B500250D4F00F08A
:1028F00043FF0024A6000A21B859C943FDF788FE0A
:1029000001460948094A301800F0B5F8641C032C48
:10291000F0DB7D20C000FFF7A5FA6D1C642DE6DB1F
:10292000F8BD000008040020F40000209A99593FE7
:102930000EB500226B461A805A8001911A819A7254
:102940006946FEF7C1FA0EBD70B50646FFF734FDC5
:10295000194C21692061451A3046FDF755FE17498B
:1029600001F0FCF906460121204689070C3000F0F1
:102970006FF82846FDF748FE05463046616801F0CD
:102980007DFA294601F0EAF90D4901F0E7F9E1681D
:1029900001F04AF90B49E060884205DDFF2000F0B4
:1029A0003FF87F20C00503E0FF2000F021F8002061
:1029B0006060002070BD0000C80000208988883D4C
:1029C0006F12833A48E1FA3E70B50D460446FFF7B0
:1029D000F3FC2146FDF70CFC6C432009814203D92E
:1029E000032000F01DF870BD032000F001F870BD59
:1029F00070B50446094DC00703D004212846FEF7F0
:102A000064F8A00703D508212846FEF75EF86007A2
:102A100003D502212846FEF756F870BD0000004895
:102A200070B50446094DC00703D004212846FEF7BF
:102A30004AF8A00703D508212846FEF744F86007A6
:102A400003D502212846FEF740F870BD000000487B
:102A500070B504460120C0070D4645400E4620686B
:102A600001F0D4F900D226602846216801F0CEF9A1
:102A700000D2256070BD70B505460C467F20164615
:102A80001146C00501F0FAF9214601F067F9044644
:102A90003146286801F062F9214601F0C5F8286046
:102AA00070BD0000F3B5104E104F8C0083B031594B
:102AB000786901F053F9019030460C3805593869AE
:102AC000294601F04BF90090B969039801F046F9E5
:102AD000009901F0A9F8019901F0D0F9314635517A
:102AE0000C39085105B0F0BD8005002074010020AC
:102AF00010B5FDF787FC7F24E405214601F0B2F90B
:102B0000A04201DD204610BD0121C9078842FAD943
:102B1000002010BD10B501F021F97F24E405214605
:102B200001F0A0F9A04201DD204610BD0121C90736
:102B30008842FAD9002010BDF8B5164A09018C1850
:102B400005462768A168606801F06EF80090E168AA
:102B500001F06AF801467F20C005FDF753FC00999B
:102B600001F0FCF806463946284601F087F931465F
:102B700001F0F4F8394601F057F805467F20314658
:102B8000C00501F07BF9009901F0E8F8256060606C
:102B90002846F8BD600400200EB57D20C000FFF778
:102BA00061F9FEF7BBFCFFF70BFCFF20FFF738FFD6
:102BB00000F060FE00F0A2FFED48FFF753F9FFF7C9
:102BC000D9FD00F00BFC0021084600F081FC00213B
:102BD000012000F07DFC0021032000F079FC0021A1
:102BE000022000F075FC00F09BFD00F097FD00282E
:102BF00037D0FEF70FFADF48012181730171FFF72B
:102C0000C5F9FFF7CBF900F013FDDB4E00240020DF
:102C1000FEF776FAB16801F0A1F805460120FEF74B
:102C20006FFA0146D54FD4483A460830FFF723FFE4
:102C30003A462946D048FFF71EFFD148641C84421B
:102C4000E5DBD04D3068062400902046FDF7D4FC2B
:102C5000074601460098FDF7D5FBA84203DD7761E2
:102C600004E0042037E0641E002CEEDC716900985B
:102C7000FDF7C8FBC449884201DA02202BE0FFF7C8
:102C8000C1FB00F081FCFFF72FFEC0480068002860
:102C900001D007201FE0FFF78FFB7063FFF78CFB6D
:102CA000B54C0546606B281AFDF7AEFC2063002882
:102CB00002DC7F20C0052063B54901F04FF8B5491B
:102CC0002063884201DD062005E0B04865630068A6
:102CD000142802DD0820FFF7CFF800F04DFDFEF7C5
:102CE00033FCFFF757FD0020FEF70AFAA24CA1685B
:102CF00001F034F806460120FEF702FA01469F4F24
:102D000020463A460830FFF7B6FEA3483A46016827
:102D100020460C30FFF7AFFEA049606901F01EF8B5
:102D200001909F4A01A82168FFF7A5FE3A46314667
:102D30002046FFF7A0FE0121C9430198FDF768FC7A
:102D400006469849206801F009F8314601F096F8E6
:102D50000090E4689448844256DD874F786A0646BE
:102D6000FDF74AFC904900F0F9FF214600F0F6FF1C
:102D7000009900F059FF7F49B400703108510646B0
:102D8000F86A002808D0002030398200401C8E509C
:102D90000C28FADB0020F86276488449103000598C
:102DA00000F0DCFF734F029040373959304601F094
:102DB00065F8029900F038FF39463E513039085124
:102DC000014600F0CBFF3E4601466036A019784A26
:102DD000FFF751FE68486849406A401C48620C2869
:102DE00012DB00204862306800240290A700F059EE
:102DF000029900F089FF04D2F05902905E48611CEC
:102E00008162641C0C2CF1DB5B4F3869002800D018
:102E10006548684900F008FF0646B86AFDF7ECFB14
:102E2000614C214600F09AFFF96800F097FF009985
:102E300000F0FAFE314600F067FF03D35E493868C0
:102E4000884201DA012000E000203861B86AFDF70D
:102E5000D3FB214600F082FFF96800F07FFF009964
:102E600000F0E2FE786055480068002801D0FFF7C6
:102E7000C3F9386900280FD008215148FFF7A4FD95
:102E80003C48C079002803D04E480068002801D093
:102E900004205CE004205EE04B480068002808D075
:102EA00048480068002806D00F214548FFF78CFDF0
:102EB000EEE70C211BE02F48C079002807D0002640
:102EC000B869002817D0386A002802D004E001262B
:102ED000F6E7FFF771FA3862FFF76EFA396A411ABE
:102EE0003748814202D90020B86138620821204861
:102EF000FFF76AFD31E0F869002825D0FFF75CFA9A
:102F00000446386A002809D13C62002E03D0032011
:102F1000FFF76EFD02E00320FFF782FD386A211AF9
:102F20002748814201D8386A04E0F869401EF861F8
:102F3000002038622549201A88420ED9002E01D07F
:102F4000032004E0032006E0002E03D00720FFF753
:102F500067FD02E00720FFF74BFDFEF73BFA7D24FB
:102F6000E400FFF729FA401BA042FAD396E60000DE
:102F7000A0860100CC02002024000020492E7F3FC3
:102F800088130000CDCC6C4033335340F001002057
:102F9000BD3786350AD7A33C2000002066668640F0
:102FA00029EA7F3F0000A03FCDCCCC3D42F27C3FE0
:102FB00067B17F3F00006040CDCC2C400000002076
:102FC00020A10700AC000020A4000020E093040032
:102FD000FFB581B007460E4610460A9D00F04EFF31
:102FE00004462846049900F049FF05463146384614
:102FF00000F044FF294600F0B1FE2146FDF702FA39
:10300000049900F011FE05B0F0BD000010B50649AE
:103010000868002807D000200860091D08710920F1
:10302000C006FDF708FD10BDF401002070B50A468A
:1030300001460748074D940003686019002B04D02F
:10304000054AFFF718FD285970BD044AF9E700004A
:10305000600000206C0200204E09183F76C63F3FFA
:103060007047000010B508490869401C0861032832
:1030700001DD00200861044809692030415C2520F9
:1030800000F0AEFD10BD00009800002010B54168B2
:1030900000788007800DFF38FF3802380818FDF7E8
:1030A000ABFA0821C943FDF7B3FA10BDF0B50646E7
:1030B0009E489F4902799F489F4F0068B4008FB097
:1030C000002A03D0994AD27B002A11D0002803D0CD
:1030D000385900F043FE3851022E1ADA9649183159
:1030E0000859C207401CD20F0851002A07D010E02F
:1030F0000028EDD1914800680028E9D0ECE78E481F
:1031000031464830005900F01FFC01468A480C3017
:1031100001518B480025015987483C30005900F087
:10312000C9FD04D187480059002800DD01258448E5
:1031300001210059C90748407F493C31095900F035
:10314000B9FD06D17F4801590120C007814200D94D
:103150000125022E0BDA78480C3001593C30005919
:1031600000F08CFE400078494008884227DC002DA2
:1031700025D171480221543005592846FDF748FAF7
:103180006D496031095900F04FFD6E4909590091B0
:1031900000F04AFD6D4900F0E1FD6D49095900F06C
:1031A000DDFD6C49096800F0D9FD395900F03CFD9E
:1031B00038516148603005510C3800990151604820
:1031C0000C3001595C482018FFF742FC6048183069
:1031D00007595C483946005900F0C0FD5C490C397C
:1031E0000959009100F0BAFD534D7F2101903C3503
:1031F000C905384600F042FE009900F0AFFD56497F
:103200000959039100F0AAFD019900F00DFD4A490A
:10321000095900F009FD28514D480C300059029021
:10322000002801DC285972E040480AA9C27B07A89F
:10323000002A06D0464A243A12590251444A183A02
:1032400005E03D4A603A125902513B4A543A12593C
:103250000A5100597F22D2050090904208590190EE
:10326000014604AF104608DA00F008FE0D903B4816
:1032700001990059400040080BE000F0FFFD0D905F
:1032800000990198FDF7BEF8014634480059400006
:10329000400800F063FD0D9900F0C6FC3851264847
:1032A00024300159039800F0E9FD029900F056FD21
:1032B00027494439C9690D9100F050FD0E901E4810
:1032C00030300159183002590192104600F0D6FDF5
:1032D000029900F043FD009900F040FD395900F0DB
:1032E0003DFD0D9900F03AFD0E9900F0C7FD124921
:1032F000019A30310A51104A039924321151314652
:10330000FFF7D0FB0146285900F08EFC28511049E8
:103310004439C96800F022FD285109480159601953
:10332000FFF796FB28590FB0F0BD0000CC0200203B
:1033300048E17A3F000000200805002068000020D6
:10334000803F000850020020CDCCCC3D7EAA2A3E12
:10335000B801002054000020140400205C0200206A
:10336000F8B5144801681448FDF74CF8134CE061B7
:103370001348016813480068FDF744F87F25124E92
:10338000ED053346114A12490095FFF721FEE06032
:10339000B04201DDE66002E0A84200DAE5600D48D7
:1033A0000079002804D00C49E06800F0D7FCE06008
:1033B000F8BD00005400002017B7513B74010020F5
:1033C0003800002024000020713DAA3F6666764048
:1033D00000002040CC0200206666663FFEB5022554
:1033E00069460D710320487100248C71CC71012154
:1033F0002846FDF709FC314F31483946FFF798FA66
:1034000001210E023046FDF7FFFB39462D4F3846AD
:10341000FFF78EFA2C4860210180012141808481D0
:103420000682846010200924E40600906946204644
:10343000FDF701FB042211462046FDF734FB22492B
:103440003846FDF789FC4020009069462046FDF78C
:10345000F2FA012206212046FDF725FB1A491848F9
:10346000FDF77AFC8020009069462046FDF7E3FADC
:10347000012207212046FDF716FB13491048FDF7EE
:10348000A9FC124C694620460095FDF7D4FA0122AA
:1034900011462046FDF707FB0B490948FDF7E2FC02
:1034A00001210748FDF742FC01210548FDF748FCD2
:1034B00001213846FDF73AFCFEBD0000CF070000B1
:1034C00000040040002000408C050020000400485B
:1034D00010B50A4604461249104600F03FFCFDF7BD
:1034E00041F8002801DA002003E00E49884200DD9F
:1034F0000846002C09D0012C0CD00B49022C0CD012
:10350000032C01D180B2886310BD074980B24031DD
:10351000086010BD80B2054900E080B2486310BD6C
:1035200000E0F944CF070000000400400020004004
:10353000F8B506467F20C0050C46814201DD0446F1
:1035400003E010498C4200D90C462146074600F0A2
:1035500095FC314600F002FC05463146084600F075
:10356000FDFB314600F0FAFB214600F0F7FB29464F
:1035700000F05AFB009039466846FFF769FA009858
:10358000F8BD0000000080BF70470000FEB5254D6B
:10359000254C2F68A6683946304600F0DFFB2349EA
:1035A0000968009100F0DAFB616800F05BFC3946C5
:1035B000019000F0D3FB009900F0D0FB314600F001
:1035C00033FB07466868029026680146304600F0E3
:1035D000C5FB009900F0C2FB394600F043FCA06037
:1035E000029900F0BBFB009900F0B8FB314600F0F7
:1035F0001BFBAD6806462946019800F0AFFB009919
:1036000000F0ACFB314600F02DFC2946206000F0B4
:10361000A5FB009900F0A2FB019900F005FB60609A
:10362000FEBD000014040020080500205400002006
:1036300000B585B014216846FCF7D8FD684600F057
:10364000E0FA0021012000F0CBFA0121022000F075
:10365000C7FA0121062000F0C3FA0F21112000F063
:10366000BFFA0021042000F0BBFA0321084600F055
:10367000B7FA20211D2000F0B3FA00F0F5F8FD2084
:1036800000F036F9002000F033F900F0E7F8E2200E
:1036900000F074FA0021052000F0A2FA8F2100202A
:1036A00000F09EFA05B000BD1B48016801221143DD
:1036B000016001688907FCD541688908890041607B
:1036C00041680907890FFBD1016801221206914365
:1036D000016001688901FCD441683F231B049943C0
:1036E000416041687B23DB039943416041680723C4
:1036F000DB041943416001681143016001688901DD
:10370000FCD5416802221143416041680907890FD5
:103710000229FAD1704700000010024001207047D2
:1037200010B580216B20FFF731F81248FEF79AFBA5
:1037300001216B20FFF72AF87520FFF723F868288E
:1037400001D0012400E000246420FEF78BFB182147
:103750001C20FFF71BF8002C03D005211D20FFF7CC
:1037600015F818211B20FFF711F800211A20FFF788
:103770000DF810BD409C0000F0B593B00E226946D4
:103780003B20FEF7FBFF029803990002401800B2AD
:10379000FCF732FF2E4C206000980199000240187F
:1037A00000B24042FCF728FF6060049805990002CF
:1037B000401800B2FCF720FFA060089809990002A9
:1037C000401800B2FCF718FF11900A980B990002FC
:1037D000401800B2FCF710FF10900C980D990002F1
:1037E000401800B2FCF708FF1290243421681098AA
:1037F00000F044FB10906168119800F03FFB1190BD
:10380000A168129800F03AFB12900120109AC007AC
:1038100011994240109111464140119112990C4F5B
:103820004140002410AE0C371291A500705909498F
:1038300000F094FA084900F091FA70512146FFF720
:103840007BF9641C7851032CEFDB13B0F0BD000052
:103850000804002000007A3D35FA8E3C0149012021
:1038600088617047001400480149012008817047B1
:1038700020140048FEB501246846047100258571B6
:10388000C4710326467102200B4F009069463846EA
:10389000FDF7D1F8694638460094FDF7CCF80748A3
:1038A000046005718571C471467101460920C00626
:1038B000FDF7C1F8BC61FEBD00140048F80100200E
:1038C00070B4002007210223074C0925074EED069E
:1038D000A3614200288A3381C007C00F1043491EEC
:1038E000F6D570BC70470000001400482014004852
:1038F000F8B504460F4809260168F6060125002997
:1039000006D105600C48057101463046FDF793F875
:1039100007210A4B0A4F022022460A41D20701D052
:10392000B56100E01D81B861064A1081491EF3D5DA
:10393000F8BD0000F4010020F8010020200000483C
:10394000001400482014004870B50C4AC9008C18B7
:10395000054660680A49206000F000FA06460949F9
:10396000284600F0FBF9314600F05EF960602268FD
:103970000146104600F058F970BD00009004002088
:1039800007715D3FE23B8A3DF8B5474D044601684B
:10399000286800F08FF904D16168686800F08AF93E
:1039A00055D0206828606068404E68603146606885
:1039B00000F0D4F93E4F394600F0D0F905463146C3
:1039C000206800F0CBF9394600F0C8F90646FEF74A
:1039D0007FFA354C083420602846FEF779FA60609B
:1039E0002846FEF76BFA05463046FEF767FA294689
:1039F00000F0B4F90646A0606068014600F0AEF938
:103A000005462068014600F0A9F9294600F00CF9A6
:103A10002849054688420FDD3146084600F09EF9E8
:103A20007F21C90500F01EFA01462846FCF7EAFC92
:103A3000FDF7B4F8054600E01F4D2068294600F068
:103A40008DF920602946606800F088F96060164CA6
:103A50001A4E0834A06800907068009900F07EF952
:103A6000B76805466168384600F078F9294600F0E5
:103A700005FA134D68603068009900F06FF906464A
:103A80003846216800F06AF9314600F0F7F97F24E2
:103A9000E405286021462846FEF7DAFF2146281D66
:103AA000FEF7D6FFF8BD0000E000002000007042E5
:103AB00035FA8E3C6F12833AF4FD343FF400002057
:103AC00038040020F8B50A4C0646606809490546E6
:103AD000206000F043F907460749304600F03EF900
:103AE000394600F0A1F82946606000F0C7F9F8BD3A
:103AF00024010020E379673FF2BC733F10B508480A
:103B0000064941610749CA6903231202120A4404A3
:103B10002243CA6100218161036110BDFF117A0057
:103B200000E000E004ED00E00A48436980690A49CA
:103B30004A68904201D2121A01E01B1A9A18486092
:103B400008681218D008C300D21A0A608A681018D0
:103B50008860704700E000E000020020064A10B5CF
:103B600080008018FCF720FF042804D0FCF714FF25
:103B70000520FEF781F910BD007C000810B5044651
:103B8000FFF772FE2046FFF7B3FEFFF767FE002047
:103B900010BD70B50D4606460024FFF765FE612096
:103BA000FFF7A6FEFFF732FA04E0FFF789FEA10057
:103BB0007050641CAC42F8DBFFF750FE70BD10B5CE
:103BC000C406E40EFFF750FE2046FFF791FEFFF714
:103BD0001DFAFFF775FE0446FFF740FE204610BDB4
:103BE00070B58406A40E20200D460443FFF73CFE6A
:103BF0002046FFF77DFE2846FFF77AFEFFF72EFEF0
:103C000070BD70B505460024FFF72EFE2A20FFF791
:103C10006FFEA0002858FFF76BFE641C052CF8DB34
:103C2000FFF71CFE70BD000070B501250400ED0714
:103C30004C4020D4441A01D2001B0919C60D4B0078
:103C4000F2B2FF2A29D01B0E2CD000020C02D31A8C
:103C50002C43DC402843051910D2280A02D3401C0B
:103C60006D0611D0761EF6058019FF2A00DA70BDA8
:103C7000C00DC00570BD694000F006F90120054384
:103C8000C541521C761CE8E764089C40C9016140AC
:103C90008900E7D10124A043E4E71B0E440200D0D1
:103CA000034870BD002AFCD1C00FC00770BD00BF23
:103CB0000000C07F01230200DB050A430DD4DA4275
:103CC00003D49A4207D488427047D84214D4D942C8
:103CD00012D48842704780427047DA4203D59A4234
:103CE000F9D5814270475B004200DA4204D24A00B3
:103CF000DA4201D28142704710B5024AFCF7AAFCB1
:103D000010BD00BF0900120401230200DB050A43B5
:103D10000DD4DA4203D49A4207D488427047D8427D
:103D200014D4D94212D48842704780427047DA4294
:103D300003D59A42F9D5814270475B004200DA42CE
:103D400004D24A00DA4201D28142704710B5024AD9
:103D5000FCF780FC10BD00BF0900160470B54200DE
:103D600064414B005C41120E39D01B0E38D0FF2A43
:103D70003CD0FF2B3AD040024902400A490A0600D3
:103D800045184E43000A090AD2184843ED017F3A0C
:103D90000104731A4019190C4318990F04D001211A
:103DA0005B0849075B1A521CD80904D3401CF50371
:103DB00001D19D0607D0FF2A08D2D50506D0E40719
:103DC0002043401970BD0125A843F4E7002A01DC17
:103DD000E00770BD2402FF202043C00570BD1B0E0C
:103DE000FF2A03D0FF2B01D0E00770BDFF2645005E
:103DF0003606B54206D84D00B54203D8D218FF2A80
:103E000000D0E7E7004870BD0000C07F01230A0032
:103E1000DB0502430DD4DA4203D49A4207D481422F
:103E20007047D94214D4D84212D481427047894293
:103E30007047DA4203D59A42F9D5884270475B0051
:103E40004A00DA4204D24200DA4201D28842704784
:103E50004840414010B5024A4840FCF7FBFB10BD0A
:103E60000900160470B50125ED07684004004C40B8
:103E700002D5694000F008F8FFF7DCFE70B50125B7
:103E80000400ED074C4022D4441A02D26C40001BBF
:103E90000919C60D4B00F2B2FF2A4BD01B0E50D0B1
:103EA00000020C02D31A2C43DC40A843051B05D5A5
:103EB000AD0019D36D08761E521E37D0F605280ABC
:103EC00001D2801970BD70416D0603D070BD69408C
:103ED000FFF7B0FE9C4009026140490001D0401E3E
:103EE00070BD0124A04370BD6D081DD001202B0CB6
:103EF00001D12D0410302B0E01D12D0208302B0FD3
:103F000001D12D01001DAB0F01D1AD00801CEB0FC5
:103F100001D16D00401C6D00361A121A680AF505B1
:103F20004019012A02DB70BD002070BDC036300A86
:103F3000C00770BD1B0E440201D1FF2B00D1024807
:103F400070BD002AF0D070BD0000C07F0C030004DB
:103F50000003000C0100010001000C02000200023D
:103F6000000C0100010003000C0200020003000C21
:103F70000300030003000C04000400040000000020
:103F80009A99D93F9A99D93F0000003F9A99D93F11
:103F90009A99D93F0000003F818283848586878873
:103FA000898B8C8D8E8F919293959697999A9C9DE3
:103FB0009FA0A2A3A5A7A8AAACAEB0B2B3B5B7B94B
:103FC000BCBEC0C2C5C7C9CCCED1D4D7D9DCDFE214
:103FD000E6E9ECF0F3F7FAFEFC3F000800000020F1
:103FE00010020000BA0700089040000810020020EC
:103FF000F0090000F400000885CFFFFF320129041A
:10400000810514CDCCCC3D256666864043803F4972
:1040100030490C0110A94CA90CE1032420C1091856
:1040200040012AA0097B14524185EB4141A9B809FE
:1040300014C4011A5A20486340405AA0080136139C
:10404000AC012A2084600D9ED8893F2173943E5292
:10405000215A3E1AC09829042F803F9A99993E040C
:10406000412DF6285C3E0458086666863F3333B31C
:10407000243EC03FA4703D043808CDCC0C3F7B14D7
:104080006E042D6666663F601AB8043AC46801265D
:040000050800013DB1
:00000001FF
